{
  "abi": [
    {
      "inputs": [
        {
          "internalType": "contract IETHPOSDeposit",
          "name": "_ethPOS",
          "type": "address"
        },
        {
          "internalType": "contract IDelayedWithdrawalRouter",
          "name": "_delayedWithdrawalRouter",
          "type": "address"
        },
        {
          "internalType": "contract IEigenPodManager",
          "name": "_eigenPodManager",
          "type": "address"
        },
        {
          "internalType": "uint256",
          "name": "_REQUIRED_BALANCE_WEI",
          "type": "uint256"
        }
      ],
      "stateMutability": "nonpayable",
      "type": "constructor"
    },
    {
      "anonymous": false,
      "inputs": [
        {
          "indexed": false,
          "internalType": "bytes",
          "name": "pubkey",
          "type": "bytes"
        }
      ],
      "name": "EigenPodStaked",
      "type": "event"
    },
    {
      "anonymous": false,
      "inputs": [
        {
          "indexed": false,
          "internalType": "uint40",
          "name": "validatorIndex",
          "type": "uint40"
        },
        {
          "indexed": true,
          "internalType": "address",
          "name": "recipient",
          "type": "address"
        },
        {
          "indexed": false,
          "internalType": "uint64",
          "name": "withdrawalAmountGwei",
          "type": "uint64"
        }
      ],
      "name": "FullWithdrawalRedeemed",
      "type": "event"
    },
    {
      "anonymous": false,
      "inputs": [
        {
          "indexed": false,
          "internalType": "uint8",
          "name": "version",
          "type": "uint8"
        }
      ],
      "name": "Initialized",
      "type": "event"
    },
    {
      "anonymous": false,
      "inputs": [
        {
          "indexed": false,
          "internalType": "uint40",
          "name": "validatorIndex",
          "type": "uint40"
        },
        {
          "indexed": true,
          "internalType": "address",
          "name": "recipient",
          "type": "address"
        },
        {
          "indexed": false,
          "internalType": "uint64",
          "name": "partialWithdrawalAmountGwei",
          "type": "uint64"
        }
      ],
      "name": "PartialWithdrawalRedeemed",
      "type": "event"
    },
    {
      "anonymous": false,
      "inputs": [
        {
          "indexed": true,
          "internalType": "address",
          "name": "recipient",
          "type": "address"
        },
        {
          "indexed": false,
          "internalType": "uint256",
          "name": "amount",
          "type": "uint256"
        }
      ],
      "name": "RestakedBeaconChainETHWithdrawn",
      "type": "event"
    },
    {
      "anonymous": false,
      "inputs": [
        {
          "indexed": false,
          "internalType": "uint40",
          "name": "validatorIndex",
          "type": "uint40"
        }
      ],
      "name": "ValidatorOvercommitted",
      "type": "event"
    },
    {
      "anonymous": false,
      "inputs": [
        {
          "indexed": false,
          "internalType": "uint40",
          "name": "validatorIndex",
          "type": "uint40"
        }
      ],
      "name": "ValidatorRestaked",
      "type": "event"
    },
    {
      "inputs": [],
      "name": "REQUIRED_BALANCE_GWEI",
      "outputs": [
        {
          "internalType": "uint64",
          "name": "",
          "type": "uint64"
        }
      ],
      "stateMutability": "view",
      "type": "function"
    },
    {
      "inputs": [],
      "name": "REQUIRED_BALANCE_WEI",
      "outputs": [
        {
          "internalType": "uint256",
          "name": "",
          "type": "uint256"
        }
      ],
      "stateMutability": "view",
      "type": "function"
    },
    {
      "inputs": [],
      "name": "delayedWithdrawalRouter",
      "outputs": [
        {
          "internalType": "contract IDelayedWithdrawalRouter",
          "name": "",
          "type": "address"
        }
      ],
      "stateMutability": "view",
      "type": "function"
    },
    {
      "inputs": [],
      "name": "eigenPodManager",
      "outputs": [
        {
          "internalType": "contract IEigenPodManager",
          "name": "",
          "type": "address"
        }
      ],
      "stateMutability": "view",
      "type": "function"
    },
    {
      "inputs": [],
      "name": "ethPOS",
      "outputs": [
        {
          "internalType": "contract IETHPOSDeposit",
          "name": "",
          "type": "address"
        }
      ],
      "stateMutability": "view",
      "type": "function"
    },
    {
      "inputs": [],
      "name": "hasRestaked",
      "outputs": [
        {
          "internalType": "bool",
          "name": "",
          "type": "bool"
        }
      ],
      "stateMutability": "view",
      "type": "function"
    },
    {
      "inputs": [
        {
          "internalType": "address",
          "name": "_podOwner",
          "type": "address"
        }
      ],
      "name": "initialize",
      "outputs": [],
      "stateMutability": "nonpayable",
      "type": "function"
    },
    {
      "inputs": [],
      "name": "mostRecentWithdrawalBlockNumber",
      "outputs": [
        {
          "internalType": "uint64",
          "name": "",
          "type": "uint64"
        }
      ],
      "stateMutability": "view",
      "type": "function"
    },
    {
      "inputs": [],
      "name": "podOwner",
      "outputs": [
        {
          "internalType": "address",
          "name": "",
          "type": "address"
        }
      ],
      "stateMutability": "view",
      "type": "function"
    },
    {
      "inputs": [
        {
          "internalType": "uint40",
          "name": "",
          "type": "uint40"
        },
        {
          "internalType": "uint64",
          "name": "",
          "type": "uint64"
        }
      ],
      "name": "provenPartialWithdrawal",
      "outputs": [
        {
          "internalType": "bool",
          "name": "",
          "type": "bool"
        }
      ],
      "stateMutability": "view",
      "type": "function"
    },
    {
      "inputs": [],
      "name": "restakedExecutionLayerGwei",
      "outputs": [
        {
          "internalType": "uint64",
          "name": "",
          "type": "uint64"
        }
      ],
      "stateMutability": "view",
      "type": "function"
    },
    {
      "inputs": [
        {
          "internalType": "bytes",
          "name": "pubkey",
          "type": "bytes"
        },
        {
          "internalType": "bytes",
          "name": "signature",
          "type": "bytes"
        },
        {
          "internalType": "bytes32",
          "name": "depositDataRoot",
          "type": "bytes32"
        }
      ],
      "name": "stake",
      "outputs": [],
      "stateMutability": "payable",
      "type": "function"
    },
    {
      "inputs": [
        {
          "internalType": "uint40",
          "name": "",
          "type": "uint40"
        }
      ],
      "name": "validatorStatus",
      "outputs": [
        {
          "internalType": "enum IEigenPod.VALIDATOR_STATUS",
          "name": "",
          "type": "uint8"
        }
      ],
      "stateMutability": "view",
      "type": "function"
    },
    {
      "inputs": [
        {
          "components": [
            {
              "internalType": "bytes",
              "name": "blockHeaderProof",
              "type": "bytes"
            },
            {
              "internalType": "bytes",
              "name": "withdrawalProof",
              "type": "bytes"
            },
            {
              "internalType": "bytes",
              "name": "slotProof",
              "type": "bytes"
            },
            {
              "internalType": "bytes",
              "name": "executionPayloadProof",
              "type": "bytes"
            },
            {
              "internalType": "bytes",
              "name": "blockNumberProof",
              "type": "bytes"
            },
            {
              "internalType": "uint64",
              "name": "blockHeaderRootIndex",
              "type": "uint64"
            },
            {
              "internalType": "uint64",
              "name": "withdrawalIndex",
              "type": "uint64"
            },
            {
              "internalType": "bytes32",
              "name": "blockHeaderRoot",
              "type": "bytes32"
            },
            {
              "internalType": "bytes32",
              "name": "blockBodyRoot",
              "type": "bytes32"
            },
            {
              "internalType": "bytes32",
              "name": "slotRoot",
              "type": "bytes32"
            },
            {
              "internalType": "bytes32",
              "name": "blockNumberRoot",
              "type": "bytes32"
            },
            {
              "internalType": "bytes32",
              "name": "executionPayloadRoot",
              "type": "bytes32"
            }
          ],
          "internalType": "struct BeaconChainProofs.WithdrawalProofs",
          "name": "withdrawalProofs",
          "type": "tuple"
        },
        {
          "internalType": "bytes",
          "name": "validatorFieldsProof",
          "type": "bytes"
        },
        {
          "internalType": "bytes32[]",
          "name": "validatorFields",
          "type": "bytes32[]"
        },
        {
          "internalType": "bytes32[]",
          "name": "withdrawalFields",
          "type": "bytes32[]"
        },
        {
          "internalType": "uint256",
          "name": "beaconChainETHStrategyIndex",
          "type": "uint256"
        },
        {
          "internalType": "uint64",
          "name": "oracleBlockNumber",
          "type": "uint64"
        }
      ],
      "name": "verifyAndProcessWithdrawal",
      "outputs": [],
      "stateMutability": "nonpayable",
      "type": "function"
    },
    {
      "inputs": [
        {
          "internalType": "uint40",
          "name": "validatorIndex",
          "type": "uint40"
        },
        {
          "components": [
            {
              "internalType": "bytes",
              "name": "validatorFieldsProof",
              "type": "bytes"
            },
            {
              "internalType": "bytes",
              "name": "validatorBalanceProof",
              "type": "bytes"
            },
            {
              "internalType": "bytes32",
              "name": "balanceRoot",
              "type": "bytes32"
            }
          ],
          "internalType": "struct BeaconChainProofs.ValidatorFieldsAndBalanceProofs",
          "name": "proofs",
          "type": "tuple"
        },
        {
          "internalType": "bytes32[]",
          "name": "validatorFields",
          "type": "bytes32[]"
        },
        {
          "internalType": "uint256",
          "name": "beaconChainETHStrategyIndex",
          "type": "uint256"
        },
        {
          "internalType": "uint64",
          "name": "oracleBlockNumber",
          "type": "uint64"
        }
      ],
      "name": "verifyOvercommittedStake",
      "outputs": [],
      "stateMutability": "nonpayable",
      "type": "function"
    },
    {
      "inputs": [
        {
          "internalType": "uint64",
          "name": "oracleBlockNumber",
          "type": "uint64"
        },
        {
          "internalType": "uint40",
          "name": "validatorIndex",
          "type": "uint40"
        },
        {
          "components": [
            {
              "internalType": "bytes",
              "name": "validatorFieldsProof",
              "type": "bytes"
            },
            {
              "internalType": "bytes",
              "name": "validatorBalanceProof",
              "type": "bytes"
            },
            {
              "internalType": "bytes32",
              "name": "balanceRoot",
              "type": "bytes32"
            }
          ],
          "internalType": "struct BeaconChainProofs.ValidatorFieldsAndBalanceProofs",
          "name": "proofs",
          "type": "tuple"
        },
        {
          "internalType": "bytes32[]",
          "name": "validatorFields",
          "type": "bytes32[]"
        }
      ],
      "name": "verifyWithdrawalCredentialsAndBalance",
      "outputs": [],
      "stateMutability": "nonpayable",
      "type": "function"
    },
    {
      "inputs": [],
      "name": "withdrawBeforeRestaking",
      "outputs": [],
      "stateMutability": "nonpayable",
      "type": "function"
    },
    {
      "inputs": [
        {
          "internalType": "address",
          "name": "recipient",
          "type": "address"
        },
        {
          "internalType": "uint256",
          "name": "amountWei",
          "type": "uint256"
        }
      ],
      "name": "withdrawRestakedBeaconChainETH",
      "outputs": [],
      "stateMutability": "nonpayable",
      "type": "function"
    }
  ],
  "bytecode": {
    "object": "0x6101206040523480156200001257600080fd5b5060405162003e1238038062003e128339810160408190526200003591620001f6565b6001600160a01b0380851660805283811660a052821660c05261010081905262000064633b9aca008262000266565b6001600160401b031660e05262000080633b9aca00826200027d565b156200010a5760405162461bcd60e51b815260206004820152604860248201527f456967656e506f642e636f6e74727563746f723a205f52455155495245445f4260448201527f414c414e43455f574549206973206e6f7420612077686f6c65206e756d626572606482015267206f66206777656960c01b608482015260a4015b60405180910390fd5b620001146200011e565b5050505062000294565b600054610100900460ff1615620001885760405162461bcd60e51b815260206004820152602760248201527f496e697469616c697a61626c653a20636f6e747261637420697320696e697469604482015266616c697a696e6760c81b606482015260840162000101565b60005460ff9081161015620001db576000805460ff191660ff9081179091556040519081527f7f26b83ff96e1f2b6a682f133852f6798a09c465da95921460cefb38474024989060200160405180910390a15b565b6001600160a01b0381168114620001f357600080fd5b50565b600080600080608085870312156200020d57600080fd5b84516200021a81620001dd565b60208601519094506200022d81620001dd565b60408601519093506200024081620001dd565b6060959095015193969295505050565b634e487b7160e01b600052601260045260246000fd5b60008262000278576200027862000250565b500490565b6000826200028f576200028f62000250565b500690565b60805160a05160c05160e05161010051613a756200039d600039600081816101fa01528181610dd2015281816114a9015261266601526000818161029201528181610b5f015281816111e60152818161234401528181612385015281816123c6015281816124a901528181612568015281816125a901526125ea01526000818161023c01528181610447015281816104e201528181610789015281816108fe01528181610c8301528181610df801528181610e6d01528181611028015281816112d4015281816114cf01528181611627015281816124740152818161268c015261270201526000818161015d0152612c280152600081816102e60152610f380152613a756000f3fe6080604052600436106101095760003560e01c806374cdd79811610095578063baa7145a11610064578063baa7145a14610378578063c49074421461038d578063c4d66de8146103ad578063ddf4639a146103cd578063ef8015711461040857600080fd5b806374cdd798146102d45780639b4e463414610308578063b08b41981461031b578063b18a69f61461033b57600080fd5b806332b58cd7116100dc57806332b58cd7146101e85780634665bcda1461022a578063507fa7f61461025e578063517355dd1461028057806351f07208146102b457600080fd5b80630b18ff661461010e5780631a5057be1461014b5780631e4158631461017f5780633106ab53146101b7575b600080fd5b34801561011a57600080fd5b5060335461012e906001600160a01b031681565b6040516001600160a01b0390911681526020015b60405180910390f35b34801561015757600080fd5b5061012e7f000000000000000000000000000000000000000000000000000000000000000081565b34801561018b57600080fd5b5060345461019f906001600160401b031681565b6040516001600160401b039091168152602001610142565b3480156101c357600080fd5b506034546101d890600160401b900460ff1681565b6040519015158152602001610142565b3480156101f457600080fd5b5061021c7f000000000000000000000000000000000000000000000000000000000000000081565b604051908152602001610142565b34801561023657600080fd5b5061012e7f000000000000000000000000000000000000000000000000000000000000000081565b34801561026a57600080fd5b5061027e6102793660046130b2565b61042f565b005b34801561028c57600080fd5b5061019f7f000000000000000000000000000000000000000000000000000000000000000081565b3480156102c057600080fd5b5061027e6102cf3660046131af565b6108e5565b3480156102e057600080fd5b5061012e7f000000000000000000000000000000000000000000000000000000000000000081565b61027e61031636600461323a565b610e62565b34801561032757600080fd5b5061027e6103363660046132ad565b61100f565b34801561034757600080fd5b5061036b61035636600461333f565b60356020526000908152604090205460ff1681565b6040516101429190613377565b34801561038457600080fd5b5061027e611500565b34801561039957600080fd5b5061027e6103a83660046133b7565b61161c565b3480156103b957600080fd5b5061027e6103c83660046133e3565b611702565b3480156103d957600080fd5b506101d86103e8366004613400565b603660209081526000928352604080842090915290825290205460ff1681565b34801561041457600080fd5b5060335461019f90600160a01b90046001600160401b031681565b604051635ac86ab760e01b81526004808201819052907f00000000000000000000000000000000000000000000000000000000000000006001600160a01b031690635ac86ab790602401602060405180830381865afa158015610496573d6000803e3d6000fd5b505050506040513d601f19601f820116820180604052508101906104ba9190613433565b156104e05760405162461bcd60e51b81526004016104d790613455565b60405180910390fd5b7f00000000000000000000000000000000000000000000000000000000000000006001600160a01b031663b13442716040518163ffffffff1660e01b8152600401602060405180830381865afa15801561053e573d6000803e3d6000fd5b505050506040513d601f19601f8201168201806040525081019061056291906134b2565b6033546040516372c1cc1b60e11b81526001600160a01b03918216600482015291169063e583983690602401602060405180830381865afa1580156105ab573d6000803e3d6000fd5b505050506040513d601f19601f820116820180604052508101906105cf9190613433565b156106305760405162461bcd60e51b815260206004820152602b60248201527f456967656e506f642e6f6e6c794e6f7446726f7a656e3a20706f64206f776e6560448201526a391034b990333937bd32b760a91b60648201526084016104d7565b61063e8a6101400135611899565b6033546001600160401b03600160a01b9091048116908216116106735760405162461bcd60e51b81526004016104d7906134cf565b60006106978787600181811061068b5761068b613571565b90506020020135611899565b9050600064ffffffffff821660009081526035602052604090205460ff1660038111156106c6576106c6613361565b14156107685760405162461bcd60e51b815260206004820152607160248201526000805160206139e083398151915260448201527f653a2056616c696461746f72206e657665722070726f76656e20746f2068617660648201527f65207769746864726177616c2063726564656e7469616c7320706f696e746564608482015270081d1bc81d1a1a5cc818dbdb9d1c9858dd607a1b60a482015260c4016104d7565b604051636c2d846360e11b81526001600160401b03851660048201526000907f00000000000000000000000000000000000000000000000000000000000000006001600160a01b03169063d85b08c690602401602060405180830381865afa1580156107d8573d6000803e3d6000fd5b505050506040513d601f19601f820116820180604052508101906107fc9190613587565b905061080a818e8a8a611900565b61081882828e8e8e8e61210f565b60006108308989600381811061068b5761068b613571565b905060006108428f6101200135611899565b905061085860206001600160401b0383166135cc565b61086e8d8d600781811061068b5761068b613571565b6001600160401b0316116108b95760335464ffffffffff85166000908152603560205260409020546108b491849187918c916001600160a01b039091169060ff16612326565b6108d4565b6033546108d4908290849087906001600160a01b03166128b5565b505050505050505050505050505050565b604051635ac86ab760e01b8152600260048201819052907f00000000000000000000000000000000000000000000000000000000000000006001600160a01b031690635ac86ab790602401602060405180830381865afa15801561094d573d6000803e3d6000fd5b505050506040513d601f19601f820116820180604052508101906109719190613433565b1561098e5760405162461bcd60e51b81526004016104d790613455565b60335486906001600160401b03600160a01b9091048116908216116109c55760405162461bcd60e51b81526004016104d7906134cf565b64ffffffffff861660009081526035602052604081205460ff1660038111156109f0576109f0613361565b14610a995760405162461bcd60e51b815260206004820152606760248201527f456967656e506f642e766572696679436f72726563745769746864726177616c60448201527f43726564656e7469616c733a2056616c696461746f72206d757374206265206960648201527f6e61637469766520746f2070726f7665207769746864726177616c2063726564608482015266656e7469616c7360c81b60a482015260c4016104d7565b610aa1612a1c565b610aaa906135e0565b84846001818110610abd57610abd613571565b9050602002013514610b4b5760405162461bcd60e51b815260206004820152604b60248201527f456967656e506f642e766572696679436f72726563745769746864726177616c60448201527f43726564656e7469616c733a2050726f6f66206973206e6f7420666f7220746860648201526a1a5cc8115a59d95b941bd960aa1b608482015260a4016104d7565b6000610b5b878760400135612a61565b90507f00000000000000000000000000000000000000000000000000000000000000006001600160401b0316816001600160401b03161015610c625760405162461bcd60e51b815260206004820152608860248201527f456967656e506f642e766572696679436f72726563745769746864726177616c60448201527f43726564656e7469616c733a204554482076616c696461746f7227732062616c60648201527f616e6365206d7573742062652067726561746572207468616e206f722065717560848201527f616c20746f207468652072657374616b65642062616c616e636520706572207660a48201526730b634b230ba37b960c11b60c482015260e4016104d7565b604051636c2d846360e11b81526001600160401b03891660048201526000907f00000000000000000000000000000000000000000000000000000000000000006001600160a01b03169063d85b08c690602401602060405180830381865afa158015610cd2573d6000803e3d6000fd5b505050506040513d601f19601f82011682018060405250810190610cf69190613587565b9050610d0e8882610d078a80613604565b8a8a61210f565b610d2a8882610d2060208b018b613604565b8b60400135612a9d565b64ffffffffff88166000908152603560205260409020805460ff1916600117905560345460ff600160401b90910416610d76576034805468ff00000000000000001916600160401b1790555b60405164ffffffffff891681527f2d0800bbc377ea54a08c5db6a87aafff5e3e9c8fead0eda110e40e0c104414499060200160405180910390a160335460405163103ebac760e01b81526001600160a01b0391821660048201527f000000000000000000000000000000000000000000000000000000000000000060248201527f00000000000000000000000000000000000000000000000000000000000000009091169063103ebac7906044015b600060405180830381600087803b158015610e3f57600080fd5b505af1158015610e53573d6000803e3d6000fd5b50505050505050505050505050565b336001600160a01b037f00000000000000000000000000000000000000000000000000000000000000001614610eaa5760405162461bcd60e51b81526004016104d79061364a565b346801bc16d674ec80000014610f365760405162461bcd60e51b8152602060048201526044602482018190527f456967656e506f642e7374616b653a206d75737420696e697469616c6c792073908201527f74616b6520666f7220616e792076616c696461746f72207769746820333220656064820152633a3432b960e11b608482015260a4016104d7565b7f00000000000000000000000000000000000000000000000000000000000000006001600160a01b031663228951186801bc16d674ec8000008787610f79612a1c565b8888886040518863ffffffff1660e01b8152600401610f9d969594939291906136f0565b6000604051808303818588803b158015610fb657600080fd5b505af1158015610fca573d6000803e3d6000fd5b50505050507f606865b7934a25d4aed43f6cdb426403353fa4b3009c4d228407474581b01e238585604051611000929190613758565b60405180910390a15050505050565b604051635ac86ab760e01b8152600360048201819052907f00000000000000000000000000000000000000000000000000000000000000006001600160a01b031690635ac86ab790602401602060405180830381865afa158015611077573d6000803e3d6000fd5b505050506040513d601f19601f8201168201806040525081019061109b9190613433565b156110b85760405162461bcd60e51b81526004016104d790613455565b436110ce61c4e06001600160401b038516613774565b10156111445760405162461bcd60e51b815260206004820152604b60248201526000805160206139e083398151915260448201527f653a2073706563696669656420626c6f636b4e756d62657220697320746f6f2060648201526a19985c881a5b881c185cdd60aa1b608482015260a4016104d7565b600164ffffffffff881660009081526035602052604090205460ff16600381111561117157611171613361565b146111d25760405162461bcd60e51b815260206004820152603760248201526000805160206139e083398151915260448201527f653a2056616c696461746f72206e6f742061637469766500000000000000000060648201526084016104d7565b60006111e2888860400135612a61565b90507f00000000000000000000000000000000000000000000000000000000000000006001600160401b0316816001600160401b0316106112b35760405162461bcd60e51b815260206004820152606b60248201526000805160206139e083398151915260448201527f653a2076616c696461746f7227732062616c616e6365206d757374206265206c60648201527f657373207468616e207468652072657374616b65642062616c616e636520706560848201526a39103b30b634b230ba37b960a91b60a482015260c4016104d7565b604051636c2d846360e11b81526001600160401b03841660048201526000907f00000000000000000000000000000000000000000000000000000000000000006001600160a01b03169063d85b08c690602401602060405180830381865afa158015611323573d6000803e3d6000fd5b505050506040513d601f19601f820116820180604052508101906113479190613587565b90506001600160401b03821661140f57600061136f8888600381811061068b5761068b613571565b9050806001600160401b03166001146113f75760405162461bcd60e51b815260206004820152605060248201526000805160206139e083398151915260448201527f653a2056616c696461746f72206d75737420626520736c617368656420746f2060648201526f1899481bdd995c98dbdb5b5a5d1d195960821b608482015260a4016104d7565b61140d8a836114068c80613604565b8c8c61210f565b505b61142b898261142160208c018c613604565b8c60400135612a9d565b64ffffffffff8916600081815260356020908152604091829020805460ff1916600217905590519182527f39436dbc3ba65889c15d38b42ce4be0e2da99723fdebaf0e12df341b5e6e5fd5910160405180910390a16033546040516331f657db60e11b81526001600160a01b039182166004820152602481018790527f000000000000000000000000000000000000000000000000000000000000000060448201527f0000000000000000000000000000000000000000000000000000000000000000909116906363ecafb690606401610e25565b6033546001600160a01b0316331461156b5760405162461bcd60e51b815260206004820152602860248201527f456967656e506f642e6f6e6c79456967656e506f644f776e65723a206e6f74206044820152673837b227bbb732b960c11b60648201526084016104d7565b603454600160401b900460ff16156115dd5760405162461bcd60e51b815260206004820152602f60248201527f456967656e506f642e6861734e6576657252657374616b65643a20726573746160448201526e1ada5b99c81a5cc8195b98589b1959608a1b60648201526084016104d7565b60338054600160a01b63ffffffff43160267ffffffffffffffff60a01b198216811790925561161a916001600160a01b0390811691161747612bfe565b565b336001600160a01b037f000000000000000000000000000000000000000000000000000000000000000016146116645760405162461bcd60e51b81526004016104d79061364a565b611672633b9aca00826135cc565b6034805460009061168d9084906001600160401b031661378c565b92506101000a8154816001600160401b0302191690836001600160401b03160217905550816001600160a01b03167f8947fd2ce07ef9cc302c4e8f0461015615d91ce851564839e91cc804c2f49d8e826040516116ec91815260200190565b60405180910390a26116fe8282612bfe565b5050565b600054610100900460ff16158080156117225750600054600160ff909116105b8061173c5750303b15801561173c575060005460ff166001145b61179f5760405162461bcd60e51b815260206004820152602e60248201527f496e697469616c697a61626c653a20636f6e747261637420697320616c72656160448201526d191e481a5b9a5d1a585b1a5e995960921b60648201526084016104d7565b6000805460ff1916600117905580156117c2576000805461ff0019166101001790555b6001600160a01b0382166118355760405162461bcd60e51b815260206004820152603460248201527f456967656e506f642e696e697469616c697a653a20706f644f776e65722063616044820152736e6e6f74206265207a65726f206164647265737360601b60648201526084016104d7565b603380546001600160a01b0319166001600160a01b03841617905580156116fe576000805461ff0019169055604051600181527f7f26b83ff96e1f2b6a682f133852f6798a09c465da95921460cefb38474024989060200160405180910390a15050565b60f881901c60e882901c61ff00161760d882901c62ff0000161760c882901c63ff000000161764ff0000000060b883901c161765ff000000000060a883901c161766ff000000000000609883901c161767ff0000000000000060889290921c919091161790565b61190b600280613898565b81146119855760405162461bcd60e51b815260206004820152604f6024820152600080516020613a2083398151915260448201527f616c50726f6f66733a207769746864726177616c4669656c647320686173206960648201526e0dcc6dee4e4cac6e840d8cadccee8d608b1b608482015260a4016104d7565b611991600d6002613898565b6119a160c0850160a086016138a4565b6001600160401b031610611a195760405162461bcd60e51b81526020600482015260456024820152600080516020613a2083398151915260448201527f616c50726f6f66733a20626c6f636b526f6f74496e64657820697320746f6f206064820152646c6172676560d81b608482015260a4016104d7565b611a2560046002613898565b611a3560e0850160c086016138a4565b6001600160401b031610611aae5760405162461bcd60e51b81526020600482015260466024820152600080516020613a2083398151915260448201527f616c50726f6f66733a207769746864726177616c496e64657820697320746f6f606482015265206c6172676560d01b608482015260a4016104d7565b611aba600d6005613774565b611ac59060206138bf565b611acf8480613604565b905014611b4a5760405162461bcd60e51b815260206004820152604f6024820152600080516020613a2083398151915260448201527f616c50726f6f66733a20626c6f636b48656164657250726f6f6620686173206960648201526e0dcc6dee4e4cac6e840d8cadccee8d608b1b608482015260a4016104d7565b611b55600480613774565b611b60906001613774565b611b6b9060206138bf565b611b786020850185613604565b905014611bf25760405162461bcd60e51b815260206004820152604e6024820152600080516020613a2083398151915260448201527f616c50726f6f66733a207769746864726177616c50726f6f662068617320696e60648201526d0c6dee4e4cac6e840d8cadccee8d60931b608482015260a4016104d7565b611bfe60046003613774565b611c099060206138bf565b611c166060850185613604565b905014611c965760405162461bcd60e51b81526020600482015260546024820152600080516020613a2083398151915260448201527f616c50726f6f66733a20657865637574696f6e5061796c6f616450726f6f66206064820152730d0c2e640d2dcc6dee4e4cac6e840d8cadccee8d60631b608482015260a4016104d7565b6000611ca860c0850160a086016138a4565b6001600160401b031661a000179050611d05611cc48580613604565b8080601f016020809104026020016040519081016040528093929190818152602001838380828437600092019190915250899250505060e087013584612c8c565b611d795760405162461bcd60e51b815260206004820152604b6024820152600080516020613a2083398151915260448201527f616c50726f6f66733a20496e76616c696420626c6f636b20686561646572206d60648201526a32b935b63290383937b7b360a91b608482015260a4016104d7565b611dcf611d896040860186613604565b8080601f016020809104026020016040519081016040528093929190818152602001838380828437600092018290525060e08a013593506101208a013592509050612c8c565b611e3b5760405162461bcd60e51b81526020600482015260436024820152600080516020613a2083398151915260448201527f616c50726f6f66733a20496e76616c696420736c6f74206d65726b6c6520707260648201526237b7b360e91b608482015260a4016104d7565b6049611e92611e4d6060870187613604565b8080601f01602080910402602001604051908101604052809392919081815260200183838082843760009201919091525050505060e087013561016088013584612c8c565b611f0a5760405162461bcd60e51b815260206004820152604f6024820152600080516020613a2083398151915260448201527f616c50726f6f66733a20496e76616c696420657865637574696f6e5061796c6f60648201526e30b21036b2b935b63290383937b7b360891b608482015260a4016104d7565b611f61611f1a6080870187613604565b8080601f0160208091040260200160405190810160405280939291908181526020018383808284376000920191909152505050506101608701356101408801356006612c8c565b611fd45760405162461bcd60e51b815260206004820152604a6024820152600080516020613a2083398151915260448201527f616c50726f6f66733a20496e76616c696420626c6f636b4e756d626572206d656064820152693935b63290383937b7b360b11b608482015260a4016104d7565b6000611fe660e0870160c088016138a4565b6001600160401b0316611ffb60046001613774565b600e901b1790506000612040868680806020026020016040519081016040528093929190818152602001838360200280828437600092019190915250612ca492505050565b90506120936120526020890189613604565b8080601f0160208091040260200160405190810160405280939291908181526020018383808284376000920191909152505050506101608901358385612c8c565b6121055760405162461bcd60e51b81526020600482015260496024820152600080516020613a2083398151915260448201527f616c50726f6f66733a20496e76616c6964207769746864726177616c206d657260648201526835b63290383937b7b360b91b608482015260a4016104d7565b5050505050505050565b61211b60036002613898565b81146121945760405162461bcd60e51b815260206004820152604e6024820152600080516020613a0083398151915260448201527f724669656c64733a2056616c696461746f72206669656c64732068617320696e60648201526d0c6dee4e4cac6e840d8cadccee8d60931b608482015260a4016104d7565b60056121a260286001613774565b6121ac9190613774565b6121b79060206138bf565b83146122255760405162461bcd60e51b81526020600482015260436024820152600080516020613a0083398151915260448201527f724669656c64733a2050726f6f662068617320696e636f7272656374206c656e6064820152620cee8d60eb1b608482015260a4016104d7565b600064ffffffffff871661223b60286001613774565b600b901b1790506000612280848480806020026020016040519081016040528093929190818152602001838360200280828437600092019190915250612ca492505050565b90506122c686868080601f0160208091040260200160405190810160405280939291908181526020018383808284376000920191909152508b9250859150869050612c8c565b6121055760405162461bcd60e51b815260206004820152603d6024820152600080516020613a0083398151915260448201527f724669656c64733a20496e76616c6964206d65726b6c652070726f6f6600000060648201526084016104d7565b6000600182600381111561233c5761233c613361565b141561254c577f00000000000000000000000000000000000000000000000000000000000000006001600160401b0316866001600160401b03161061242657633b9aca006123aa7f00000000000000000000000000000000000000000000000000000000000000008861378c565b6001600160401b03166123bd91906138bf565b603480549192507f0000000000000000000000000000000000000000000000000000000000000000916000906123fd9084906001600160401b03166138de565b92506101000a8154816001600160401b0302191690836001600160401b0316021790555061282f565b603480548791906000906124449084906001600160401b03166138de565b82546001600160401b039182166101009390930a9283029190920219909116179055506033546001600160a01b037f00000000000000000000000000000000000000000000000000000000000000008116916363ecafb6911686633b9aca006124cd8b7f000000000000000000000000000000000000000000000000000000000000000061378c565b6001600160401b03166124e091906138bf565b6040516001600160e01b031960e086901b1681526001600160a01b039093166004840152602483019190915260448201526064015b600060405180830381600087803b15801561252f57600080fd5b505af1158015612543573d6000803e3d6000fd5b5050505061282f565b600282600381111561256057612560613361565b141561278f577f00000000000000000000000000000000000000000000000000000000000000006001600160401b0316866001600160401b0316106126be57633b9aca006125ce7f00000000000000000000000000000000000000000000000000000000000000008861378c565b6001600160401b03166125e191906138bf565b603480549192507f0000000000000000000000000000000000000000000000000000000000000000916000906126219084906001600160401b03166138de565b82546001600160401b039182166101009390930a92830291909202199091161790555060335460405163103ebac760e01b81526001600160a01b0391821660048201527f000000000000000000000000000000000000000000000000000000000000000060248201527f0000000000000000000000000000000000000000000000000000000000000000919091169063103ebac790604401612515565b603480548791906000906126dc9084906001600160401b03166138de565b92506101000a8154816001600160401b0302191690836001600160401b031602179055507f00000000000000000000000000000000000000000000000000000000000000006001600160a01b031663103ebac7603360009054906101000a90046001600160a01b0316633b9aca00896001600160401b031661275e91906138bf565b6040516001600160e01b031960e085901b1681526001600160a01b0390921660048301526024820152604401612515565b60405162461bcd60e51b815260206004820152606360248201527f456967656e506f642e766572696679426561636f6e436861696e46756c6c576960448201527f746864726177616c3a2056414c494441544f525f53544154555320697320574960648201527f5448445241574e206f7220696e76616c69642056414c494441544f525f53544160848201526254555360e81b60a482015260c4016104d7565b64ffffffffff8516600081815260356020908152604091829020805460ff1916600317905581519283526001600160401b038916908301526001600160a01b038516917f7341859cc78ba6561939cd5245350631bfaddbc9a16ade2aa7d698c16e8f1d94910160405180910390a280156128ad576128ad8382612bfe565b505050505050565b64ffffffffff821660009081526036602090815260408083206001600160401b038816845290915290205460ff161561297c5760405162461bcd60e51b815260206004820152605c60248201527f456967656e506f642e5f70726f636573735061727469616c576974686472617760448201527f616c3a207061727469616c207769746864726177616c2068617320616c72656160648201527f6479206265656e2070726f76656e20666f72207468697320736c6f7400000000608482015260a4016104d7565b64ffffffffff821660008181526036602090815260408083206001600160401b03898116855290835292819020805460ff191660011790558051938452918616908301526001600160a01b038316917f56d746a6c4b72294c7b70b592e8e37d22c732ebd3f9fe9c8539d704b43a950b9910160405180910390a2612a1681612a11633b9aca006001600160401b0387166138bf565b612bfe565b50505050565b60408051600160f81b60208201526000602182015230606090811b6bffffffffffffffffffffffff1916602c8301529101604051602081830303815290604052905090565b600080612a6f600485613909565b612a7a90604061392d565b64ffffffffff16905082811b6000612a9182611899565b93505050505b92915050565b6005612aab60266001613774565b612ab59190613774565b612ac09060206138bf565b8214612b305760405162461bcd60e51b815260206004820152604460248201819052600080516020613a00833981519152908201527f7242616c616e63653a2050726f6f662068617320696e636f7272656374206c656064820152630dccee8d60e31b608482015260a4016104d7565b6000612b3d60048761395a565b64ffffffffff16905080612b5360266001613774565b600c901b179050612b9e84848080601f016020809104026020016040519081016040528093929190818152602001838380828437600092019190915250899250869150859050612c8c565b6128ad5760405162461bcd60e51b815260206004820152603e6024820152600080516020613a0083398151915260448201527f7242616c616e63653a20496e76616c6964206d65726b6c652070726f6f66000060648201526084016104d7565b603354604051633036cd5360e21b81526001600160a01b03918216600482015283821660248201527f00000000000000000000000000000000000000000000000000000000000000009091169063c0db354c9083906044016000604051808303818588803b158015612c6f57600080fd5b505af1158015612c83573d6000803e3d6000fd5b50505050505050565b600083612c9a868585612f51565b1495945050505050565b60008060028351612cb591906135cc565b90506000816001600160401b03811115612cd157612cd161397e565b604051908082528060200260200182016040528015612cfa578160200160208202803683370190505b50905060005b82811015612e0157600285612d1583836138bf565b81518110612d2557612d25613571565b602002602001015186836002612d3b91906138bf565b612d46906001613774565b81518110612d5657612d56613571565b6020026020010151604051602001612d78929190918252602082015260400190565b60408051601f1981840301815290829052612d9291613994565b602060405180830381855afa158015612daf573d6000803e3d6000fd5b5050506040513d601f19601f82011682018060405250810190612dd29190613587565b828281518110612de457612de4613571565b602090810291909101015280612df9816139b0565b915050612d00565b50612e0d6002836135cc565b91505b8115612f2d5760005b82811015612f1a57600282612e2e83836138bf565b81518110612e3e57612e3e613571565b602002602001015183836002612e5491906138bf565b612e5f906001613774565b81518110612e6f57612e6f613571565b6020026020010151604051602001612e91929190918252602082015260400190565b60408051601f1981840301815290829052612eab91613994565b602060405180830381855afa158015612ec8573d6000803e3d6000fd5b5050506040513d601f19601f82011682018060405250810190612eeb9190613587565b828281518110612efd57612efd613571565b602090810291909101015280612f12816139b0565b915050612e19565b50612f266002836135cc565b9150612e10565b80600081518110612f4057612f40613571565b602002602001015192505050919050565b6040805160208082019092528381526000915b85518111612fe757612f776002856139cb565b612faa578151600052808601516020526020826040600060026107d05a03fa612f9f57600080fd5b600284049350612fd5565b8086015160005281516020526020826040600060026107d05a03fa612fce57600080fd5b6002840493505b612fe0602082613774565b9050612f64565b5051949350505050565b6000610180828403121561300457600080fd5b50919050565b60008083601f84011261301c57600080fd5b5081356001600160401b0381111561303357600080fd5b60208301915083602082850101111561304b57600080fd5b9250929050565b60008083601f84011261306457600080fd5b5081356001600160401b0381111561307b57600080fd5b6020830191508360208260051b850101111561304b57600080fd5b80356001600160401b03811681146130ad57600080fd5b919050565b600080600080600080600080600060c08a8c0312156130d057600080fd5b89356001600160401b03808211156130e757600080fd5b6130f38d838e01612ff1565b9a5060208c013591508082111561310957600080fd5b6131158d838e0161300a565b909a50985060408c013591508082111561312e57600080fd5b61313a8d838e01613052565b909850965060608c013591508082111561315357600080fd5b506131608c828d01613052565b90955093505060808a0135915061317960a08b01613096565b90509295985092959850929598565b803564ffffffffff811681146130ad57600080fd5b60006060828403121561300457600080fd5b6000806000806000608086880312156131c757600080fd5b6131d086613096565b94506131de60208701613188565b935060408601356001600160401b03808211156131fa57600080fd5b61320689838a0161319d565b9450606088013591508082111561321c57600080fd5b5061322988828901613052565b969995985093965092949392505050565b60008060008060006060868803121561325257600080fd5b85356001600160401b038082111561326957600080fd5b61327589838a0161300a565b9097509550602088013591508082111561328e57600080fd5b5061329b8882890161300a565b96999598509660400135949350505050565b60008060008060008060a087890312156132c657600080fd5b6132cf87613188565b955060208701356001600160401b03808211156132eb57600080fd5b6132f78a838b0161319d565b9650604089013591508082111561330d57600080fd5b5061331a89828a01613052565b9095509350506060870135915061333360808801613096565b90509295509295509295565b60006020828403121561335157600080fd5b61335a82613188565b9392505050565b634e487b7160e01b600052602160045260246000fd5b602081016004831061339957634e487b7160e01b600052602160045260246000fd5b91905290565b6001600160a01b03811681146133b457600080fd5b50565b600080604083850312156133ca57600080fd5b82356133d58161339f565b946020939093013593505050565b6000602082840312156133f557600080fd5b813561335a8161339f565b6000806040838503121561341357600080fd5b61341c83613188565b915061342a60208401613096565b90509250929050565b60006020828403121561344557600080fd5b8151801515811461335a57600080fd5b6020808252603e908201527f456967656e506f642e6f6e6c795768656e4e6f745061757365643a20696e646560408201527f782069732070617573656420696e20456967656e506f644d616e616765720000606082015260800190565b6000602082840312156134c457600080fd5b815161335a8161339f565b60208082526076908201527f456967656e506f642e70726f6f664973466f7256616c6964426c6f636b4e756d60408201527f6265723a20626561636f6e20636861696e2070726f6f66206d7573742062652060608201527f666f7220626c6f636b206e756d626572206166746572206d6f7374526563656e6080820152753a2bb4ba34323930bbb0b6213637b1b5a73ab6b132b960511b60a082015260c00190565b634e487b7160e01b600052603260045260246000fd5b60006020828403121561359957600080fd5b5051919050565b634e487b7160e01b600052601260045260246000fd5b634e487b7160e01b600052601160045260246000fd5b6000826135db576135db6135a0565b500490565b805160208083015191908110156130045760001960209190910360031b1b16919050565b6000808335601e1984360301811261361b57600080fd5b8301803591506001600160401b0382111561363557600080fd5b60200191503681900382131561304b57600080fd5b60208082526031908201527f456967656e506f642e6f6e6c79456967656e506f644d616e616765723a206e6f6040820152703a1032b4b3b2b72837b226b0b730b3b2b960791b606082015260800190565b81835281816020850137506000828201602090810191909152601f909101601f19169091010190565b60005b838110156136df5781810151838201526020016136c7565b83811115612a165750506000910152565b60808152600061370460808301888a61369b565b82810360208401528651808252613722816020840160208b016136c4565b601f01601f19160182810360209081016040850152613744908201868861369b565b915050826060830152979650505050505050565b60208152600061376c60208301848661369b565b949350505050565b60008219821115613787576137876135b6565b500190565b60006001600160401b03838116908316818110156137ac576137ac6135b6565b039392505050565b600181815b808511156137ef5781600019048211156137d5576137d56135b6565b808516156137e257918102915b93841c93908002906137b9565b509250929050565b60008261380657506001612a97565b8161381357506000612a97565b816001811461382957600281146138335761384f565b6001915050612a97565b60ff841115613844576138446135b6565b50506001821b612a97565b5060208310610133831016604e8410600b8410161715613872575081810a612a97565b61387c83836137b4565b8060001904821115613890576138906135b6565b029392505050565b600061335a83836137f7565b6000602082840312156138b657600080fd5b61335a82613096565b60008160001904831182151516156138d9576138d96135b6565b500290565b60006001600160401b03808316818516808303821115613900576139006135b6565b01949350505050565b600064ffffffffff80841680613921576139216135a0565b92169190910692915050565b600064ffffffffff80831681851681830481118215151615613951576139516135b6565b02949350505050565b600064ffffffffff80841680613972576139726135a0565b92169190910492915050565b634e487b7160e01b600052604160045260246000fd5b600082516139a68184602087016136c4565b9190910192915050565b60006000198214156139c4576139c46135b6565b5060010190565b6000826139da576139da6135a0565b50069056fe456967656e506f642e7665726966794f766572636f6d6d69747465645374616b426561636f6e436861696e50726f6f66732e76657269667956616c696461746f426561636f6e436861696e50726f6f66732e7665726966795769746864726177a26469706673582212204fe32af658b3bc208305466aa47b803786c0a17fb9729aafd0e099ca204c85e864736f6c634300080c0033",
    "linkReferences": {}
  },
  "methodIdentifiers": {
    "REQUIRED_BALANCE_GWEI()": "517355dd",
    "REQUIRED_BALANCE_WEI()": "32b58cd7",
    "delayedWithdrawalRouter()": "1a5057be",
    "eigenPodManager()": "4665bcda",
    "ethPOS()": "74cdd798",
    "hasRestaked()": "3106ab53",
    "initialize(address)": "c4d66de8",
    "mostRecentWithdrawalBlockNumber()": "ef801571",
    "podOwner()": "0b18ff66",
    "provenPartialWithdrawal(uint40,uint64)": "ddf4639a",
    "restakedExecutionLayerGwei()": "1e415863",
    "stake(bytes,bytes,bytes32)": "9b4e4634",
    "validatorStatus(uint40)": "b18a69f6",
    "verifyAndProcessWithdrawal((bytes,bytes,bytes,bytes,bytes,uint64,uint64,bytes32,bytes32,bytes32,bytes32,bytes32),bytes,bytes32[],bytes32[],uint256,uint64)": "507fa7f6",
    "verifyOvercommittedStake(uint40,(bytes,bytes,bytes32),bytes32[],uint256,uint64)": "b08b4198",
    "verifyWithdrawalCredentialsAndBalance(uint64,uint40,(bytes,bytes,bytes32),bytes32[])": "51f07208",
    "withdrawBeforeRestaking()": "baa7145a",
    "withdrawRestakedBeaconChainETH(address,uint256)": "c4907442"
  },
  "id": 116
}