{
  "abi": [
    {
      "inputs": [
        {
          "internalType": "contract IETHPOSDeposit",
          "name": "_ethPOS",
          "type": "address"
        },
        {
          "internalType": "contract IBeacon",
          "name": "_eigenPodBeacon",
          "type": "address"
        },
        {
          "internalType": "contract IStrategyManager",
          "name": "_strategyManager",
          "type": "address"
        },
        {
          "internalType": "contract ISlasher",
          "name": "_slasher",
          "type": "address"
        }
      ],
      "stateMutability": "nonpayable",
      "type": "constructor"
    },
    {
      "anonymous": false,
      "inputs": [
        {
          "indexed": true,
          "internalType": "address",
          "name": "podOwner",
          "type": "address"
        },
        {
          "indexed": false,
          "internalType": "uint256",
          "name": "amount",
          "type": "uint256"
        }
      ],
      "name": "BeaconChainETHDeposited",
      "type": "event"
    },
    {
      "anonymous": false,
      "inputs": [
        {
          "indexed": true,
          "internalType": "address",
          "name": "newOracleAddress",
          "type": "address"
        }
      ],
      "name": "BeaconOracleUpdated",
      "type": "event"
    },
    {
      "anonymous": false,
      "inputs": [
        {
          "indexed": false,
          "internalType": "uint8",
          "name": "version",
          "type": "uint8"
        }
      ],
      "name": "Initialized",
      "type": "event"
    },
    {
      "anonymous": false,
      "inputs": [
        {
          "indexed": true,
          "internalType": "address",
          "name": "previousOwner",
          "type": "address"
        },
        {
          "indexed": true,
          "internalType": "address",
          "name": "newOwner",
          "type": "address"
        }
      ],
      "name": "OwnershipTransferred",
      "type": "event"
    },
    {
      "anonymous": false,
      "inputs": [
        {
          "indexed": true,
          "internalType": "address",
          "name": "account",
          "type": "address"
        },
        {
          "indexed": false,
          "internalType": "uint256",
          "name": "newPausedStatus",
          "type": "uint256"
        }
      ],
      "name": "Paused",
      "type": "event"
    },
    {
      "anonymous": false,
      "inputs": [
        {
          "indexed": true,
          "internalType": "address",
          "name": "eigenPod",
          "type": "address"
        },
        {
          "indexed": true,
          "internalType": "address",
          "name": "podOwner",
          "type": "address"
        }
      ],
      "name": "PodDeployed",
      "type": "event"
    },
    {
      "anonymous": false,
      "inputs": [
        {
          "indexed": true,
          "internalType": "address",
          "name": "account",
          "type": "address"
        },
        {
          "indexed": false,
          "internalType": "uint256",
          "name": "newPausedStatus",
          "type": "uint256"
        }
      ],
      "name": "Unpaused",
      "type": "event"
    },
    {
      "inputs": [],
      "name": "beaconChainOracle",
      "outputs": [
        {
          "internalType": "contract IBeaconChainOracle",
          "name": "",
          "type": "address"
        }
      ],
      "stateMutability": "view",
      "type": "function"
    },
    {
      "inputs": [],
      "name": "createPod",
      "outputs": [],
      "stateMutability": "nonpayable",
      "type": "function"
    },
    {
      "inputs": [],
      "name": "eigenPodBeacon",
      "outputs": [
        {
          "internalType": "contract IBeacon",
          "name": "",
          "type": "address"
        }
      ],
      "stateMutability": "view",
      "type": "function"
    },
    {
      "inputs": [],
      "name": "ethPOS",
      "outputs": [
        {
          "internalType": "contract IETHPOSDeposit",
          "name": "",
          "type": "address"
        }
      ],
      "stateMutability": "view",
      "type": "function"
    },
    {
      "inputs": [
        {
          "internalType": "uint64",
          "name": "blockNumber",
          "type": "uint64"
        }
      ],
      "name": "getBeaconChainStateRoot",
      "outputs": [
        {
          "internalType": "bytes32",
          "name": "",
          "type": "bytes32"
        }
      ],
      "stateMutability": "view",
      "type": "function"
    },
    {
      "inputs": [
        {
          "internalType": "address",
          "name": "podOwner",
          "type": "address"
        }
      ],
      "name": "getPod",
      "outputs": [
        {
          "internalType": "contract IEigenPod",
          "name": "",
          "type": "address"
        }
      ],
      "stateMutability": "view",
      "type": "function"
    },
    {
      "inputs": [
        {
          "internalType": "address",
          "name": "podOwner",
          "type": "address"
        }
      ],
      "name": "hasPod",
      "outputs": [
        {
          "internalType": "bool",
          "name": "",
          "type": "bool"
        }
      ],
      "stateMutability": "view",
      "type": "function"
    },
    {
      "inputs": [
        {
          "internalType": "contract IBeaconChainOracle",
          "name": "_beaconChainOracle",
          "type": "address"
        },
        {
          "internalType": "address",
          "name": "initialOwner",
          "type": "address"
        },
        {
          "internalType": "contract IPauserRegistry",
          "name": "_pauserRegistry",
          "type": "address"
        },
        {
          "internalType": "uint256",
          "name": "_initPausedStatus",
          "type": "uint256"
        }
      ],
      "name": "initialize",
      "outputs": [],
      "stateMutability": "nonpayable",
      "type": "function"
    },
    {
      "inputs": [],
      "name": "owner",
      "outputs": [
        {
          "internalType": "address",
          "name": "",
          "type": "address"
        }
      ],
      "stateMutability": "view",
      "type": "function"
    },
    {
      "inputs": [
        {
          "internalType": "address",
          "name": "",
          "type": "address"
        }
      ],
      "name": "ownerToPod",
      "outputs": [
        {
          "internalType": "contract IEigenPod",
          "name": "",
          "type": "address"
        }
      ],
      "stateMutability": "view",
      "type": "function"
    },
    {
      "inputs": [
        {
          "internalType": "uint256",
          "name": "newPausedStatus",
          "type": "uint256"
        }
      ],
      "name": "pause",
      "outputs": [],
      "stateMutability": "nonpayable",
      "type": "function"
    },
    {
      "inputs": [],
      "name": "pauseAll",
      "outputs": [],
      "stateMutability": "nonpayable",
      "type": "function"
    },
    {
      "inputs": [
        {
          "internalType": "uint8",
          "name": "index",
          "type": "uint8"
        }
      ],
      "name": "paused",
      "outputs": [
        {
          "internalType": "bool",
          "name": "",
          "type": "bool"
        }
      ],
      "stateMutability": "view",
      "type": "function"
    },
    {
      "inputs": [],
      "name": "paused",
      "outputs": [
        {
          "internalType": "uint256",
          "name": "",
          "type": "uint256"
        }
      ],
      "stateMutability": "view",
      "type": "function"
    },
    {
      "inputs": [],
      "name": "pauserRegistry",
      "outputs": [
        {
          "internalType": "contract IPauserRegistry",
          "name": "",
          "type": "address"
        }
      ],
      "stateMutability": "view",
      "type": "function"
    },
    {
      "inputs": [
        {
          "internalType": "address",
          "name": "podOwner",
          "type": "address"
        },
        {
          "internalType": "uint256",
          "name": "beaconChainETHStrategyIndex",
          "type": "uint256"
        },
        {
          "internalType": "uint256",
          "name": "amount",
          "type": "uint256"
        }
      ],
      "name": "recordOvercommittedBeaconChainETH",
      "outputs": [],
      "stateMutability": "nonpayable",
      "type": "function"
    },
    {
      "inputs": [],
      "name": "renounceOwnership",
      "outputs": [],
      "stateMutability": "nonpayable",
      "type": "function"
    },
    {
      "inputs": [
        {
          "internalType": "address",
          "name": "podOwner",
          "type": "address"
        },
        {
          "internalType": "uint256",
          "name": "amount",
          "type": "uint256"
        }
      ],
      "name": "restakeBeaconChainETH",
      "outputs": [],
      "stateMutability": "nonpayable",
      "type": "function"
    },
    {
      "inputs": [],
      "name": "slasher",
      "outputs": [
        {
          "internalType": "contract ISlasher",
          "name": "",
          "type": "address"
        }
      ],
      "stateMutability": "view",
      "type": "function"
    },
    {
      "inputs": [
        {
          "internalType": "bytes",
          "name": "pubkey",
          "type": "bytes"
        },
        {
          "internalType": "bytes",
          "name": "signature",
          "type": "bytes"
        },
        {
          "internalType": "bytes32",
          "name": "depositDataRoot",
          "type": "bytes32"
        }
      ],
      "name": "stake",
      "outputs": [],
      "stateMutability": "payable",
      "type": "function"
    },
    {
      "inputs": [],
      "name": "strategyManager",
      "outputs": [
        {
          "internalType": "contract IStrategyManager",
          "name": "",
          "type": "address"
        }
      ],
      "stateMutability": "view",
      "type": "function"
    },
    {
      "inputs": [
        {
          "internalType": "address",
          "name": "newOwner",
          "type": "address"
        }
      ],
      "name": "transferOwnership",
      "outputs": [],
      "stateMutability": "nonpayable",
      "type": "function"
    },
    {
      "inputs": [
        {
          "internalType": "uint256",
          "name": "newPausedStatus",
          "type": "uint256"
        }
      ],
      "name": "unpause",
      "outputs": [],
      "stateMutability": "nonpayable",
      "type": "function"
    },
    {
      "inputs": [
        {
          "internalType": "contract IBeaconChainOracle",
          "name": "newBeaconChainOracle",
          "type": "address"
        }
      ],
      "name": "updateBeaconChainOracle",
      "outputs": [],
      "stateMutability": "nonpayable",
      "type": "function"
    },
    {
      "inputs": [
        {
          "internalType": "address",
          "name": "podOwner",
          "type": "address"
        },
        {
          "internalType": "address",
          "name": "recipient",
          "type": "address"
        },
        {
          "internalType": "uint256",
          "name": "amount",
          "type": "uint256"
        }
      ],
      "name": "withdrawRestakedBeaconChainETH",
      "outputs": [],
      "stateMutability": "nonpayable",
      "type": "function"
    }
  ],
  "bytecode": {
    "object": "0x6101006040523480156200001257600080fd5b50604051620024fe380380620024fe833981016040819052620000359162000143565b6001600160a01b0380851660805283811660a05282811660c052811660e0526200005e62000068565b50505050620001ab565b600054610100900460ff1615620000d55760405162461bcd60e51b815260206004820152602760248201527f496e697469616c697a61626c653a20636f6e747261637420697320696e697469604482015266616c697a696e6760c81b606482015260840160405180910390fd5b60005460ff908116101562000128576000805460ff191660ff9081179091556040519081527f7f26b83ff96e1f2b6a682f133852f6798a09c465da95921460cefb38474024989060200160405180910390a15b565b6001600160a01b03811681146200014057600080fd5b50565b600080600080608085870312156200015a57600080fd5b845162000167816200012a565b60208601519094506200017a816200012a565b60408601519093506200018d816200012a565b6060860151909250620001a0816200012a565b939692955090935050565b60805160a05160c05160e0516122f66200020860003960006103fd01526000818161023001528181610584015281816107910152610a430152600081816101df01528181610c08015261121d0152600061030d01526122f66000f3fe6080604052600436106101665760003560e01c8063886f1195116100d1578063c052bd611161008a578063d85b08c611610064578063d85b08c61461047f578063f2fde38b1461049f578063f6848d24146104bf578063fabc1cbc146104fa57600080fd5b8063c052bd611461041f578063c1de3aef1461043f578063cf756fdf1461045f57600080fd5b8063886f1195146103445780638da5cb5b146103645780639b4e4634146103825780639ba0627514610395578063a38406a3146103cb578063b1344271146103eb57600080fd5b80635ac86ab7116101235780635ac86ab7146102675780635c975abb146102a757806363ecafb6146102c6578063715018a6146102e657806374cdd798146102fb57806384d810621461032f57600080fd5b8063103ebac71461016b578063136439dd1461018d5780631739ec9e146101ad578063292b7b2b146101cd57806339b70e381461021e578063595c6a6714610252575b600080fd5b34801561017757600080fd5b5061018b610186366004611600565b61051a565b005b34801561019957600080fd5b5061018b6101a836600461162c565b610628565b3480156101b957600080fd5b5061018b6101c8366004611645565b610786565b3480156101d957600080fd5b506102017f000000000000000000000000000000000000000000000000000000000000000081565b6040516001600160a01b0390911681526020015b60405180910390f35b34801561022a57600080fd5b506102017f000000000000000000000000000000000000000000000000000000000000000081565b34801561025e57600080fd5b5061018b6108f5565b34801561027357600080fd5b50610297610282366004611686565b606654600160ff9092169190911b9081161490565b6040519015158152602001610215565b3480156102b357600080fd5b506066545b604051908152602001610215565b3480156102d257600080fd5b5061018b6102e13660046116b0565b6109db565b3480156102f257600080fd5b5061018b610a72565b34801561030757600080fd5b506102017f000000000000000000000000000000000000000000000000000000000000000081565b34801561033b57600080fd5b5061018b610a86565b34801561035057600080fd5b50606554610201906001600160a01b031681565b34801561037057600080fd5b506033546001600160a01b0316610201565b61018b61039036600461172e565b610b13565b3480156103a157600080fd5b506102016103b03660046117a2565b6098602052600090815260409020546001600160a01b031681565b3480156103d757600080fd5b506102016103e63660046117a2565b610bac565b3480156103f757600080fd5b506102017f000000000000000000000000000000000000000000000000000000000000000081565b34801561042b57600080fd5b50609754610201906001600160a01b031681565b34801561044b57600080fd5b5061018b61045a3660046117a2565b610c80565b34801561046b57600080fd5b5061018b61047a3660046117bf565b610c91565b34801561048b57600080fd5b506102b861049a366004611810565b610dba565b3480156104ab57600080fd5b5061018b6104ba3660046117a2565b610ec7565b3480156104cb57600080fd5b506102976104da3660046117a2565b6001600160a01b0390811660009081526098602052604090205416151590565b34801561050657600080fd5b5061018b61051536600461162c565b610f3d565b6001600160a01b03808316600090815260986020526040902054839116331461055e5760405162461bcd60e51b81526004016105559061183a565b60405180910390fd5b6040516327c03e8960e21b81526001600160a01b038481166004830152602482018490527f00000000000000000000000000000000000000000000000000000000000000001690639f00fa2490604401600060405180830381600087803b1580156105c857600080fd5b505af11580156105dc573d6000803e3d6000fd5b50505050826001600160a01b03167f35a85cabc603f48abb2b71d9fbd8adea7c449d7f0be900ae7a2986ea369c3d0d8360405161061b91815260200190565b60405180910390a2505050565b606560009054906101000a90046001600160a01b03166001600160a01b0316639fd0506d6040518163ffffffff1660e01b8152600401602060405180830381865afa15801561067b573d6000803e3d6000fd5b505050506040513d601f19601f8201168201806040525081019061069f9190611881565b6001600160a01b0316336001600160a01b0316146106cf5760405162461bcd60e51b81526004016105559061189e565b606654818116146107485760405162461bcd60e51b815260206004820152603860248201527f5061757361626c652e70617573653a20696e76616c696420617474656d70742060448201527f746f20756e70617573652066756e6374696f6e616c69747900000000000000006064820152608401610555565b606681905560405181815233907fab40a374bc51de372200a8bc981af8c9ecdc08dfdaef0bb6e09f88f3c616ef3d906020015b60405180910390a250565b336001600160a01b037f000000000000000000000000000000000000000000000000000000000000000016146108245760405162461bcd60e51b815260206004820152603860248201527f456967656e506f644d616e616765722e6f6e6c7953747261746567794d616e6160448201527f6765723a206e6f742073747261746567794d616e6167657200000000000000006064820152608401610555565b606654600190600290811614156108795760405162461bcd60e51b815260206004820152601960248201527814185d5cd8589b194e881a5b99195e081a5cc81c185d5cd959603a1b6044820152606401610555565b6001600160a01b03848116600090815260986020526040908190205490516362483a2160e11b815285831660048201526024810185905291169063c4907442906044015b600060405180830381600087803b1580156108d757600080fd5b505af11580156108eb573d6000803e3d6000fd5b5050505050505050565b606560009054906101000a90046001600160a01b03166001600160a01b0316639fd0506d6040518163ffffffff1660e01b8152600401602060405180830381865afa158015610948573d6000803e3d6000fd5b505050506040513d601f19601f8201168201806040525081019061096c9190611881565b6001600160a01b0316336001600160a01b03161461099c5760405162461bcd60e51b81526004016105559061189e565b600019606681905560405190815233907fab40a374bc51de372200a8bc981af8c9ecdc08dfdaef0bb6e09f88f3c616ef3d9060200160405180910390a2565b6001600160a01b038084166000908152609860205260409020548491163314610a165760405162461bcd60e51b81526004016105559061183a565b6040516331f657db60e11b81526001600160a01b03858116600483015260248201859052604482018490527f000000000000000000000000000000000000000000000000000000000000000016906363ecafb6906064016108bd565b610a7a6110dc565b610a846000611136565b565b336000908152609860205260409020546001600160a01b031615610b085760405162461bcd60e51b815260206004820152603360248201527f456967656e506f644d616e616765722e637265617465506f643a2053656e64656044820152721c88185b1c9958591e481a185cc818481c1bd9606a1b6064820152608401610555565b610b10611188565b50565b336000908152609860205260409020546001600160a01b031680610b3c57610b39611188565b90505b6040516326d3918d60e21b81526001600160a01b03821690639b4e4634903490610b72908a908a908a908a908a9060040161190f565b6000604051808303818588803b158015610b8b57600080fd5b505af1158015610b9f573d6000803e3d6000fd5b5050505050505050505050565b6001600160a01b0380821660009081526098602052604081205490911680610c7a57610c77836001600160a01b031660001b60405180610940016040528061090e81526020016119b361090e9139604080516001600160a01b037f0000000000000000000000000000000000000000000000000000000000000000166020820152808201919091526000606082015260800160408051601f1981840301815290829052610c5c9291602001611984565b6040516020818303038152906040528051906020012061133b565b90505b92915050565b610c886110dc565b610b1081611397565b600054610100900460ff1615808015610cb15750600054600160ff909116105b80610ccb5750303b158015610ccb575060005460ff166001145b610d2e5760405162461bcd60e51b815260206004820152602e60248201527f496e697469616c697a61626c653a20636f6e747261637420697320616c72656160448201526d191e481a5b9a5d1a585b1a5e995960921b6064820152608401610555565b6000805460ff191660011790558015610d51576000805461ff0019166101001790555b610d5a85611397565b610d6384611136565b610d6d83836113e1565b8015610db3576000805461ff0019169055604051600181527f7f26b83ff96e1f2b6a682f133852f6798a09c465da95921460cefb38474024989060200160405180910390a15b5050505050565b60975460405163864b8a6960e01b815267ffffffffffffffff8316600482015260009182916001600160a01b039091169063864b8a6990602401602060405180830381865afa158015610e11573d6000803e3d6000fd5b505050506040513d601f19601f82011682018060405250810190610e359190611999565b905080610c7a5760405162461bcd60e51b815260206004820152605460248201527f456967656e506f644d616e616765722e676574426561636f6e436861696e537460448201527f617465526f6f743a20737461746520726f6f7420617420626c6f636b4e756d62606482015273195c881b9bdd081e595d08199a5b985b1a5e995960621b608482015260a401610555565b610ecf6110dc565b6001600160a01b038116610f345760405162461bcd60e51b815260206004820152602660248201527f4f776e61626c653a206e6577206f776e657220697320746865207a65726f206160448201526564647265737360d01b6064820152608401610555565b610b1081611136565b606560009054906101000a90046001600160a01b03166001600160a01b031663eab66d7a6040518163ffffffff1660e01b8152600401602060405180830381865afa158015610f90573d6000803e3d6000fd5b505050506040513d601f19601f82011682018060405250810190610fb49190611881565b6001600160a01b0316336001600160a01b0316146110275760405162461bcd60e51b815260206004820152602a60248201527f6d73672e73656e646572206973206e6f74207065726d697373696f6e6564206160448201526939903ab73830bab9b2b960b11b6064820152608401610555565b6066541981196066541916146110a55760405162461bcd60e51b815260206004820152603860248201527f5061757361626c652e756e70617573653a20696e76616c696420617474656d7060448201527f7420746f2070617573652066756e6374696f6e616c69747900000000000000006064820152608401610555565b606681905560405181815233907f3582d1828e26bf56bd801502bc021ac0bc8afb57c826e4986b45593c8fad389c9060200161077b565b6033546001600160a01b03163314610a845760405162461bcd60e51b815260206004820181905260248201527f4f776e61626c653a2063616c6c6572206973206e6f7420746865206f776e65726044820152606401610555565b603380546001600160a01b038381166001600160a01b0319831681179093556040519116919082907f8be0079c531659141344cd1fd0a4f28419497f9722a3daafe3b4186f6b6457e090600090a35050565b6066546000908190600190811614156111df5760405162461bcd60e51b815260206004820152601960248201527814185d5cd8589b194e881a5b99195e081a5cc81c185d5cd959603a1b6044820152606401610555565b60006112856000336001600160a01b031660001b60405180610940016040528061090e81526020016119b361090e9139604080516001600160a01b037f0000000000000000000000000000000000000000000000000000000000000000166020820152808201919091526000606082015260800160408051601f19818403018152908290526112719291602001611984565b6040516020818303038152906040526114e1565b60405163189acdbd60e31b81523360048201529091506001600160a01b0382169063c4d66de890602401600060405180830381600087803b1580156112c957600080fd5b505af11580156112dd573d6000803e3d6000fd5b50503360008181526098602052604080822080546001600160a01b0319166001600160a01b038816908117909155905192945092507f21c99d0db02213c32fff5b05cf0a718ab5f858802b91498f80d82270289d856a91a391505090565b604080516001600160f81b03196020808301919091526bffffffffffffffffffffffff193060601b1660218301526035820185905260558083018590528351808403909101815260759092019092528051910120600090610c77565b609780546001600160a01b0319166001600160a01b0383169081179091556040517f08f0470754946ccfbb446ff7fd2d6ae6af1bbdae19f85794c0cc5ed5e8ceb4f690600090a250565b6065546001600160a01b031615801561140257506001600160a01b03821615155b6114845760405162461bcd60e51b815260206004820152604760248201527f5061757361626c652e5f696e697469616c697a655061757365723a205f696e6960448201527f7469616c697a6550617573657228292063616e206f6e6c792062652063616c6c6064820152666564206f6e636560c81b608482015260a401610555565b606681905560405181815233907fab40a374bc51de372200a8bc981af8c9ecdc08dfdaef0bb6e09f88f3c616ef3d9060200160405180910390a250606580546001600160a01b0319166001600160a01b0392909216919091179055565b600080844710156115345760405162461bcd60e51b815260206004820152601d60248201527f437265617465323a20696e73756666696369656e742062616c616e63650000006044820152606401610555565b82516115825760405162461bcd60e51b815260206004820181905260248201527f437265617465323a2062797465636f6465206c656e677468206973207a65726f6044820152606401610555565b8383516020850187f590506001600160a01b0381166115e35760405162461bcd60e51b815260206004820152601960248201527f437265617465323a204661696c6564206f6e206465706c6f79000000000000006044820152606401610555565b949350505050565b6001600160a01b0381168114610b1057600080fd5b6000806040838503121561161357600080fd5b823561161e816115eb565b946020939093013593505050565b60006020828403121561163e57600080fd5b5035919050565b60008060006060848603121561165a57600080fd5b8335611665816115eb565b92506020840135611675816115eb565b929592945050506040919091013590565b60006020828403121561169857600080fd5b813560ff811681146116a957600080fd5b9392505050565b6000806000606084860312156116c557600080fd5b83356116d0816115eb565b95602085013595506040909401359392505050565b60008083601f8401126116f757600080fd5b50813567ffffffffffffffff81111561170f57600080fd5b60208301915083602082850101111561172757600080fd5b9250929050565b60008060008060006060868803121561174657600080fd5b853567ffffffffffffffff8082111561175e57600080fd5b61176a89838a016116e5565b9097509550602088013591508082111561178357600080fd5b50611790888289016116e5565b96999598509660400135949350505050565b6000602082840312156117b457600080fd5b81356116a9816115eb565b600080600080608085870312156117d557600080fd5b84356117e0816115eb565b935060208501356117f0816115eb565b92506040850135611800816115eb565b9396929550929360600135925050565b60006020828403121561182257600080fd5b813567ffffffffffffffff811681146116a957600080fd5b60208082526027908201527f456967656e506f644d616e616765722e6f6e6c79456967656e506f643a206e6f6040820152661d0818481c1bd960ca1b606082015260800190565b60006020828403121561189357600080fd5b81516116a9816115eb565b60208082526028908201527f6d73672e73656e646572206973206e6f74207065726d697373696f6e6564206160408201526739903830bab9b2b960c11b606082015260800190565b81835281816020850137506000828201602090810191909152601f909101601f19169091010190565b6060815260006119236060830187896118e6565b82810360208401526119368186886118e6565b9150508260408301529695505050505050565b6000815160005b8181101561196a5760208185018101518683015201611950565b81811115611979576000828601525b509290920192915050565b60006115e36119938386611949565b84611949565b6000602082840312156119ab57600080fd5b505191905056fe608060405260405161090e38038061090e83398101604081905261002291610460565b61002e82826000610035565b505061058a565b61003e83610100565b6040516001600160a01b038416907f1cf3b03a6cf19fa2baba4df148e9dcabedea7f8a5c07840e207e5c089be95d3e90600090a260008251118061007f5750805b156100fb576100f9836001600160a01b0316635c60da1b6040518163ffffffff1660e01b8152600401602060405180830381865afa1580156100c5573d6000803e3d6000fd5b505050506040513d601f19601f820116820180604052508101906100e99190610520565b836102a360201b6100291760201c565b505b505050565b610113816102cf60201b6100551760201c565b6101725760405162461bcd60e51b815260206004820152602560248201527f455243313936373a206e657720626561636f6e206973206e6f74206120636f6e6044820152641d1c9858dd60da1b60648201526084015b60405180910390fd5b6101e6816001600160a01b0316635c60da1b6040518163ffffffff1660e01b8152600401602060405180830381865afa1580156101b3573d6000803e3d6000fd5b505050506040513d601f19601f820116820180604052508101906101d79190610520565b6102cf60201b6100551760201c565b61024b5760405162461bcd60e51b815260206004820152603060248201527f455243313936373a20626561636f6e20696d706c656d656e746174696f6e206960448201526f1cc81b9bdd08184818dbdb9d1c9858dd60821b6064820152608401610169565b806102827fa3f0ad74e5423aebfd80d3ef4346578335a9a72aeaee59ff6cb3582b35133d5060001b6102de60201b6100641760201c565b80546001600160a01b0319166001600160a01b039290921691909117905550565b60606102c883836040518060600160405280602781526020016108e7602791396102e1565b9392505050565b6001600160a01b03163b151590565b90565b6060600080856001600160a01b0316856040516102fe919061053b565b600060405180830381855af49150503d8060008114610339576040519150601f19603f3d011682016040523d82523d6000602084013e61033e565b606091505b5090925090506103508683838761035a565b9695505050505050565b606083156103c65782516103bf576001600160a01b0385163b6103bf5760405162461bcd60e51b815260206004820152601d60248201527f416464726573733a2063616c6c20746f206e6f6e2d636f6e74726163740000006044820152606401610169565b50816103d0565b6103d083836103d8565b949350505050565b8151156103e85781518083602001fd5b8060405162461bcd60e51b81526004016101699190610557565b80516001600160a01b038116811461041957600080fd5b919050565b634e487b7160e01b600052604160045260246000fd5b60005b8381101561044f578181015183820152602001610437565b838111156100f95750506000910152565b6000806040838503121561047357600080fd5b61047c83610402565b60208401519092506001600160401b038082111561049957600080fd5b818501915085601f8301126104ad57600080fd5b8151818111156104bf576104bf61041e565b604051601f8201601f19908116603f011681019083821181831017156104e7576104e761041e565b8160405282815288602084870101111561050057600080fd5b610511836020830160208801610434565b80955050505050509250929050565b60006020828403121561053257600080fd5b6102c882610402565b6000825161054d818460208701610434565b9190910192915050565b6020815260008251806020840152610576816040850160208701610434565b601f01601f19169190910160400192915050565b61034e806105996000396000f3fe60806040523661001357610011610017565b005b6100115b610027610022610067565b610100565b565b606061004e83836040518060600160405280602781526020016102f260279139610124565b9392505050565b6001600160a01b03163b151590565b90565b600061009a7fa3f0ad74e5423aebfd80d3ef4346578335a9a72aeaee59ff6cb3582b35133d50546001600160a01b031690565b6001600160a01b0316635c60da1b6040518163ffffffff1660e01b8152600401602060405180830381865afa1580156100d7573d6000803e3d6000fd5b505050506040513d601f19601f820116820180604052508101906100fb9190610249565b905090565b3660008037600080366000845af43d6000803e80801561011f573d6000f35b3d6000fd5b6060600080856001600160a01b03168560405161014191906102a2565b600060405180830381855af49150503d806000811461017c576040519150601f19603f3d011682016040523d82523d6000602084013e610181565b606091505b50915091506101928683838761019c565b9695505050505050565b6060831561020d578251610206576001600160a01b0385163b6102065760405162461bcd60e51b815260206004820152601d60248201527f416464726573733a2063616c6c20746f206e6f6e2d636f6e747261637400000060448201526064015b60405180910390fd5b5081610217565b610217838361021f565b949350505050565b81511561022f5781518083602001fd5b8060405162461bcd60e51b81526004016101fd91906102be565b60006020828403121561025b57600080fd5b81516001600160a01b038116811461004e57600080fd5b60005b8381101561028d578181015183820152602001610275565b8381111561029c576000848401525b50505050565b600082516102b4818460208701610272565b9190910192915050565b60208152600082518060208401526102dd816040850160208701610272565b601f01601f1916919091016040019291505056fe416464726573733a206c6f772d6c6576656c2064656c65676174652063616c6c206661696c6564a2646970667358221220d51e81d3bc5ed20a26aeb05dce7e825c503b2061aa78628027300c8d65b9d89a64736f6c634300080c0033416464726573733a206c6f772d6c6576656c2064656c65676174652063616c6c206661696c6564a2646970667358221220ee2a34ebc6c88d159aec04bc8f91dca77448248f89f63b63902637d6d09cbe7564736f6c634300080c0033",
    "linkReferences": {}
  },
  "methodIdentifiers": {
    "beaconChainOracle()": "c052bd61",
    "createPod()": "84d81062",
    "eigenPodBeacon()": "292b7b2b",
    "ethPOS()": "74cdd798",
    "getBeaconChainStateRoot(uint64)": "d85b08c6",
    "getPod(address)": "a38406a3",
    "hasPod(address)": "f6848d24",
    "initialize(address,address,address,uint256)": "cf756fdf",
    "owner()": "8da5cb5b",
    "ownerToPod(address)": "9ba06275",
    "pause(uint256)": "136439dd",
    "pauseAll()": "595c6a67",
    "paused()": "5c975abb",
    "paused(uint8)": "5ac86ab7",
    "pauserRegistry()": "886f1195",
    "recordOvercommittedBeaconChainETH(address,uint256,uint256)": "63ecafb6",
    "renounceOwnership()": "715018a6",
    "restakeBeaconChainETH(address,uint256)": "103ebac7",
    "slasher()": "b1344271",
    "stake(bytes,bytes,bytes32)": "9b4e4634",
    "strategyManager()": "39b70e38",
    "transferOwnership(address)": "f2fde38b",
    "unpause(uint256)": "fabc1cbc",
    "updateBeaconChainOracle(address)": "c1de3aef",
    "withdrawRestakedBeaconChainETH(address,address,uint256)": "1739ec9e"
  },
  "id": 117
}