{
  "abi": [
    {
      "inputs": [
        {
          "internalType": "contract IDelegationManager",
          "name": "_delegation",
          "type": "address"
        },
        {
          "internalType": "contract IEigenPodManager",
          "name": "_eigenPodManager",
          "type": "address"
        },
        {
          "internalType": "contract ISlasher",
          "name": "_slasher",
          "type": "address"
        }
      ],
      "stateMutability": "nonpayable",
      "type": "constructor"
    },
    {
      "anonymous": false,
      "inputs": [
        {
          "indexed": false,
          "internalType": "address",
          "name": "depositor",
          "type": "address"
        },
        {
          "indexed": false,
          "internalType": "contract IERC20",
          "name": "token",
          "type": "address"
        },
        {
          "indexed": false,
          "internalType": "contract IStrategy",
          "name": "strategy",
          "type": "address"
        },
        {
          "indexed": false,
          "internalType": "uint256",
          "name": "shares",
          "type": "uint256"
        }
      ],
      "name": "Deposit",
      "type": "event"
    },
    {
      "anonymous": false,
      "inputs": [
        {
          "indexed": false,
          "internalType": "uint8",
          "name": "version",
          "type": "uint8"
        }
      ],
      "name": "Initialized",
      "type": "event"
    },
    {
      "anonymous": false,
      "inputs": [
        {
          "indexed": true,
          "internalType": "address",
          "name": "previousOwner",
          "type": "address"
        },
        {
          "indexed": true,
          "internalType": "address",
          "name": "newOwner",
          "type": "address"
        }
      ],
      "name": "OwnershipTransferred",
      "type": "event"
    },
    {
      "anonymous": false,
      "inputs": [
        {
          "indexed": true,
          "internalType": "address",
          "name": "account",
          "type": "address"
        },
        {
          "indexed": false,
          "internalType": "uint256",
          "name": "newPausedStatus",
          "type": "uint256"
        }
      ],
      "name": "Paused",
      "type": "event"
    },
    {
      "anonymous": false,
      "inputs": [
        {
          "indexed": false,
          "internalType": "address",
          "name": "depositor",
          "type": "address"
        },
        {
          "indexed": false,
          "internalType": "uint96",
          "name": "nonce",
          "type": "uint96"
        },
        {
          "indexed": false,
          "internalType": "contract IStrategy",
          "name": "strategy",
          "type": "address"
        },
        {
          "indexed": false,
          "internalType": "uint256",
          "name": "shares",
          "type": "uint256"
        }
      ],
      "name": "ShareWithdrawalQueued",
      "type": "event"
    },
    {
      "anonymous": false,
      "inputs": [
        {
          "indexed": false,
          "internalType": "contract IStrategy",
          "name": "strategy",
          "type": "address"
        }
      ],
      "name": "StrategyAddedToDepositWhitelist",
      "type": "event"
    },
    {
      "anonymous": false,
      "inputs": [
        {
          "indexed": false,
          "internalType": "contract IStrategy",
          "name": "strategy",
          "type": "address"
        }
      ],
      "name": "StrategyRemovedFromDepositWhitelist",
      "type": "event"
    },
    {
      "anonymous": false,
      "inputs": [
        {
          "indexed": false,
          "internalType": "address",
          "name": "previousAddress",
          "type": "address"
        },
        {
          "indexed": false,
          "internalType": "address",
          "name": "newAddress",
          "type": "address"
        }
      ],
      "name": "StrategyWhitelisterChanged",
      "type": "event"
    },
    {
      "anonymous": false,
      "inputs": [
        {
          "indexed": true,
          "internalType": "address",
          "name": "account",
          "type": "address"
        },
        {
          "indexed": false,
          "internalType": "uint256",
          "name": "newPausedStatus",
          "type": "uint256"
        }
      ],
      "name": "Unpaused",
      "type": "event"
    },
    {
      "anonymous": false,
      "inputs": [
        {
          "indexed": true,
          "internalType": "address",
          "name": "depositor",
          "type": "address"
        },
        {
          "indexed": false,
          "internalType": "uint96",
          "name": "nonce",
          "type": "uint96"
        },
        {
          "indexed": true,
          "internalType": "address",
          "name": "withdrawer",
          "type": "address"
        },
        {
          "indexed": false,
          "internalType": "bytes32",
          "name": "withdrawalRoot",
          "type": "bytes32"
        }
      ],
      "name": "WithdrawalCompleted",
      "type": "event"
    },
    {
      "anonymous": false,
      "inputs": [
        {
          "indexed": false,
          "internalType": "uint256",
          "name": "previousValue",
          "type": "uint256"
        },
        {
          "indexed": false,
          "internalType": "uint256",
          "name": "newValue",
          "type": "uint256"
        }
      ],
      "name": "WithdrawalDelayBlocksSet",
      "type": "event"
    },
    {
      "anonymous": false,
      "inputs": [
        {
          "indexed": false,
          "internalType": "address",
          "name": "depositor",
          "type": "address"
        },
        {
          "indexed": false,
          "internalType": "uint96",
          "name": "nonce",
          "type": "uint96"
        },
        {
          "indexed": false,
          "internalType": "address",
          "name": "withdrawer",
          "type": "address"
        },
        {
          "indexed": false,
          "internalType": "address",
          "name": "delegatedAddress",
          "type": "address"
        },
        {
          "indexed": false,
          "internalType": "bytes32",
          "name": "withdrawalRoot",
          "type": "bytes32"
        }
      ],
      "name": "WithdrawalQueued",
      "type": "event"
    },
    {
      "inputs": [],
      "name": "DEPOSIT_TYPEHASH",
      "outputs": [
        {
          "internalType": "bytes32",
          "name": "",
          "type": "bytes32"
        }
      ],
      "stateMutability": "view",
      "type": "function"
    },
    {
      "inputs": [],
      "name": "DOMAIN_SEPARATOR",
      "outputs": [
        {
          "internalType": "bytes32",
          "name": "",
          "type": "bytes32"
        }
      ],
      "stateMutability": "view",
      "type": "function"
    },
    {
      "inputs": [],
      "name": "DOMAIN_TYPEHASH",
      "outputs": [
        {
          "internalType": "bytes32",
          "name": "",
          "type": "bytes32"
        }
      ],
      "stateMutability": "view",
      "type": "function"
    },
    {
      "inputs": [],
      "name": "MAX_WITHDRAWAL_DELAY_BLOCKS",
      "outputs": [
        {
          "internalType": "uint256",
          "name": "",
          "type": "uint256"
        }
      ],
      "stateMutability": "view",
      "type": "function"
    },
    {
      "inputs": [
        {
          "internalType": "contract IStrategy[]",
          "name": "strategiesToWhitelist",
          "type": "address[]"
        }
      ],
      "name": "addStrategiesToDepositWhitelist",
      "outputs": [],
      "stateMutability": "nonpayable",
      "type": "function"
    },
    {
      "inputs": [
        {
          "internalType": "address",
          "name": "",
          "type": "address"
        }
      ],
      "name": "beaconChainETHSharesToDecrementOnWithdrawal",
      "outputs": [
        {
          "internalType": "uint256",
          "name": "",
          "type": "uint256"
        }
      ],
      "stateMutability": "view",
      "type": "function"
    },
    {
      "inputs": [],
      "name": "beaconChainETHStrategy",
      "outputs": [
        {
          "internalType": "contract IStrategy",
          "name": "",
          "type": "address"
        }
      ],
      "stateMutability": "view",
      "type": "function"
    },
    {
      "inputs": [
        {
          "components": [
            {
              "internalType": "contract IStrategy[]",
              "name": "strategies",
              "type": "address[]"
            },
            {
              "internalType": "uint256[]",
              "name": "shares",
              "type": "uint256[]"
            },
            {
              "internalType": "address",
              "name": "depositor",
              "type": "address"
            },
            {
              "components": [
                {
                  "internalType": "address",
                  "name": "withdrawer",
                  "type": "address"
                },
                {
                  "internalType": "uint96",
                  "name": "nonce",
                  "type": "uint96"
                }
              ],
              "internalType": "struct IStrategyManager.WithdrawerAndNonce",
              "name": "withdrawerAndNonce",
              "type": "tuple"
            },
            {
              "internalType": "uint32",
              "name": "withdrawalStartBlock",
              "type": "uint32"
            },
            {
              "internalType": "address",
              "name": "delegatedAddress",
              "type": "address"
            }
          ],
          "internalType": "struct IStrategyManager.QueuedWithdrawal",
          "name": "queuedWithdrawal",
          "type": "tuple"
        }
      ],
      "name": "calculateWithdrawalRoot",
      "outputs": [
        {
          "internalType": "bytes32",
          "name": "",
          "type": "bytes32"
        }
      ],
      "stateMutability": "pure",
      "type": "function"
    },
    {
      "inputs": [
        {
          "components": [
            {
              "internalType": "contract IStrategy[]",
              "name": "strategies",
              "type": "address[]"
            },
            {
              "internalType": "uint256[]",
              "name": "shares",
              "type": "uint256[]"
            },
            {
              "internalType": "address",
              "name": "depositor",
              "type": "address"
            },
            {
              "components": [
                {
                  "internalType": "address",
                  "name": "withdrawer",
                  "type": "address"
                },
                {
                  "internalType": "uint96",
                  "name": "nonce",
                  "type": "uint96"
                }
              ],
              "internalType": "struct IStrategyManager.WithdrawerAndNonce",
              "name": "withdrawerAndNonce",
              "type": "tuple"
            },
            {
              "internalType": "uint32",
              "name": "withdrawalStartBlock",
              "type": "uint32"
            },
            {
              "internalType": "address",
              "name": "delegatedAddress",
              "type": "address"
            }
          ],
          "internalType": "struct IStrategyManager.QueuedWithdrawal",
          "name": "queuedWithdrawal",
          "type": "tuple"
        },
        {
          "internalType": "contract IERC20[]",
          "name": "tokens",
          "type": "address[]"
        },
        {
          "internalType": "uint256",
          "name": "middlewareTimesIndex",
          "type": "uint256"
        },
        {
          "internalType": "bool",
          "name": "receiveAsTokens",
          "type": "bool"
        }
      ],
      "name": "completeQueuedWithdrawal",
      "outputs": [],
      "stateMutability": "nonpayable",
      "type": "function"
    },
    {
      "inputs": [
        {
          "components": [
            {
              "internalType": "contract IStrategy[]",
              "name": "strategies",
              "type": "address[]"
            },
            {
              "internalType": "uint256[]",
              "name": "shares",
              "type": "uint256[]"
            },
            {
              "internalType": "address",
              "name": "depositor",
              "type": "address"
            },
            {
              "components": [
                {
                  "internalType": "address",
                  "name": "withdrawer",
                  "type": "address"
                },
                {
                  "internalType": "uint96",
                  "name": "nonce",
                  "type": "uint96"
                }
              ],
              "internalType": "struct IStrategyManager.WithdrawerAndNonce",
              "name": "withdrawerAndNonce",
              "type": "tuple"
            },
            {
              "internalType": "uint32",
              "name": "withdrawalStartBlock",
              "type": "uint32"
            },
            {
              "internalType": "address",
              "name": "delegatedAddress",
              "type": "address"
            }
          ],
          "internalType": "struct IStrategyManager.QueuedWithdrawal[]",
          "name": "queuedWithdrawals",
          "type": "tuple[]"
        },
        {
          "internalType": "contract IERC20[][]",
          "name": "tokens",
          "type": "address[][]"
        },
        {
          "internalType": "uint256[]",
          "name": "middlewareTimesIndexes",
          "type": "uint256[]"
        },
        {
          "internalType": "bool[]",
          "name": "receiveAsTokens",
          "type": "bool[]"
        }
      ],
      "name": "completeQueuedWithdrawals",
      "outputs": [],
      "stateMutability": "nonpayable",
      "type": "function"
    },
    {
      "inputs": [],
      "name": "delegation",
      "outputs": [
        {
          "internalType": "contract IDelegationManager",
          "name": "",
          "type": "address"
        }
      ],
      "stateMutability": "view",
      "type": "function"
    },
    {
      "inputs": [
        {
          "internalType": "address",
          "name": "staker",
          "type": "address"
        },
        {
          "internalType": "uint256",
          "name": "amount",
          "type": "uint256"
        }
      ],
      "name": "depositBeaconChainETH",
      "outputs": [],
      "stateMutability": "nonpayable",
      "type": "function"
    },
    {
      "inputs": [
        {
          "internalType": "contract IStrategy",
          "name": "strategy",
          "type": "address"
        },
        {
          "internalType": "contract IERC20",
          "name": "token",
          "type": "address"
        },
        {
          "internalType": "uint256",
          "name": "amount",
          "type": "uint256"
        }
      ],
      "name": "depositIntoStrategy",
      "outputs": [
        {
          "internalType": "uint256",
          "name": "shares",
          "type": "uint256"
        }
      ],
      "stateMutability": "nonpayable",
      "type": "function"
    },
    {
      "inputs": [
        {
          "internalType": "contract IStrategy",
          "name": "strategy",
          "type": "address"
        },
        {
          "internalType": "contract IERC20",
          "name": "token",
          "type": "address"
        },
        {
          "internalType": "uint256",
          "name": "amount",
          "type": "uint256"
        },
        {
          "internalType": "address",
          "name": "staker",
          "type": "address"
        },
        {
          "internalType": "uint256",
          "name": "expiry",
          "type": "uint256"
        },
        {
          "internalType": "bytes",
          "name": "signature",
          "type": "bytes"
        }
      ],
      "name": "depositIntoStrategyWithSignature",
      "outputs": [
        {
          "internalType": "uint256",
          "name": "shares",
          "type": "uint256"
        }
      ],
      "stateMutability": "nonpayable",
      "type": "function"
    },
    {
      "inputs": [],
      "name": "eigenPodManager",
      "outputs": [
        {
          "internalType": "contract IEigenPodManager",
          "name": "",
          "type": "address"
        }
      ],
      "stateMutability": "view",
      "type": "function"
    },
    {
      "inputs": [
        {
          "internalType": "address",
          "name": "depositor",
          "type": "address"
        }
      ],
      "name": "getDeposits",
      "outputs": [
        {
          "internalType": "contract IStrategy[]",
          "name": "",
          "type": "address[]"
        },
        {
          "internalType": "uint256[]",
          "name": "",
          "type": "uint256[]"
        }
      ],
      "stateMutability": "view",
      "type": "function"
    },
    {
      "inputs": [
        {
          "internalType": "address",
          "name": "initialOwner",
          "type": "address"
        },
        {
          "internalType": "address",
          "name": "initialStrategyWhitelister",
          "type": "address"
        },
        {
          "internalType": "contract IPauserRegistry",
          "name": "_pauserRegistry",
          "type": "address"
        },
        {
          "internalType": "uint256",
          "name": "initialPausedStatus",
          "type": "uint256"
        },
        {
          "internalType": "uint256",
          "name": "_withdrawalDelayBlocks",
          "type": "uint256"
        }
      ],
      "name": "initialize",
      "outputs": [],
      "stateMutability": "nonpayable",
      "type": "function"
    },
    {
      "inputs": [
        {
          "internalType": "address",
          "name": "",
          "type": "address"
        }
      ],
      "name": "nonces",
      "outputs": [
        {
          "internalType": "uint256",
          "name": "",
          "type": "uint256"
        }
      ],
      "stateMutability": "view",
      "type": "function"
    },
    {
      "inputs": [
        {
          "internalType": "address",
          "name": "",
          "type": "address"
        }
      ],
      "name": "numWithdrawalsQueued",
      "outputs": [
        {
          "internalType": "uint256",
          "name": "",
          "type": "uint256"
        }
      ],
      "stateMutability": "view",
      "type": "function"
    },
    {
      "inputs": [],
      "name": "owner",
      "outputs": [
        {
          "internalType": "address",
          "name": "",
          "type": "address"
        }
      ],
      "stateMutability": "view",
      "type": "function"
    },
    {
      "inputs": [
        {
          "internalType": "uint256",
          "name": "newPausedStatus",
          "type": "uint256"
        }
      ],
      "name": "pause",
      "outputs": [],
      "stateMutability": "nonpayable",
      "type": "function"
    },
    {
      "inputs": [],
      "name": "pauseAll",
      "outputs": [],
      "stateMutability": "nonpayable",
      "type": "function"
    },
    {
      "inputs": [
        {
          "internalType": "uint8",
          "name": "index",
          "type": "uint8"
        }
      ],
      "name": "paused",
      "outputs": [
        {
          "internalType": "bool",
          "name": "",
          "type": "bool"
        }
      ],
      "stateMutability": "view",
      "type": "function"
    },
    {
      "inputs": [],
      "name": "paused",
      "outputs": [
        {
          "internalType": "uint256",
          "name": "",
          "type": "uint256"
        }
      ],
      "stateMutability": "view",
      "type": "function"
    },
    {
      "inputs": [],
      "name": "pauserRegistry",
      "outputs": [
        {
          "internalType": "contract IPauserRegistry",
          "name": "",
          "type": "address"
        }
      ],
      "stateMutability": "view",
      "type": "function"
    },
    {
      "inputs": [
        {
          "internalType": "uint256[]",
          "name": "strategyIndexes",
          "type": "uint256[]"
        },
        {
          "internalType": "contract IStrategy[]",
          "name": "strategies",
          "type": "address[]"
        },
        {
          "internalType": "uint256[]",
          "name": "shares",
          "type": "uint256[]"
        },
        {
          "internalType": "address",
          "name": "withdrawer",
          "type": "address"
        },
        {
          "internalType": "bool",
          "name": "undelegateIfPossible",
          "type": "bool"
        }
      ],
      "name": "queueWithdrawal",
      "outputs": [
        {
          "internalType": "bytes32",
          "name": "",
          "type": "bytes32"
        }
      ],
      "stateMutability": "nonpayable",
      "type": "function"
    },
    {
      "inputs": [
        {
          "internalType": "address",
          "name": "overcommittedPodOwner",
          "type": "address"
        },
        {
          "internalType": "uint256",
          "name": "beaconChainETHStrategyIndex",
          "type": "uint256"
        },
        {
          "internalType": "uint256",
          "name": "amount",
          "type": "uint256"
        }
      ],
      "name": "recordOvercommittedBeaconChainETH",
      "outputs": [],
      "stateMutability": "nonpayable",
      "type": "function"
    },
    {
      "inputs": [
        {
          "internalType": "contract IStrategy[]",
          "name": "strategiesToRemoveFromWhitelist",
          "type": "address[]"
        }
      ],
      "name": "removeStrategiesFromDepositWhitelist",
      "outputs": [],
      "stateMutability": "nonpayable",
      "type": "function"
    },
    {
      "inputs": [],
      "name": "renounceOwnership",
      "outputs": [],
      "stateMutability": "nonpayable",
      "type": "function"
    },
    {
      "inputs": [
        {
          "internalType": "address",
          "name": "newStrategyWhitelister",
          "type": "address"
        }
      ],
      "name": "setStrategyWhitelister",
      "outputs": [],
      "stateMutability": "nonpayable",
      "type": "function"
    },
    {
      "inputs": [
        {
          "internalType": "uint256",
          "name": "_withdrawalDelayBlocks",
          "type": "uint256"
        }
      ],
      "name": "setWithdrawalDelayBlocks",
      "outputs": [],
      "stateMutability": "nonpayable",
      "type": "function"
    },
    {
      "inputs": [
        {
          "internalType": "address",
          "name": "recipient",
          "type": "address"
        },
        {
          "components": [
            {
              "internalType": "contract IStrategy[]",
              "name": "strategies",
              "type": "address[]"
            },
            {
              "internalType": "uint256[]",
              "name": "shares",
              "type": "uint256[]"
            },
            {
              "internalType": "address",
              "name": "depositor",
              "type": "address"
            },
            {
              "components": [
                {
                  "internalType": "address",
                  "name": "withdrawer",
                  "type": "address"
                },
                {
                  "internalType": "uint96",
                  "name": "nonce",
                  "type": "uint96"
                }
              ],
              "internalType": "struct IStrategyManager.WithdrawerAndNonce",
              "name": "withdrawerAndNonce",
              "type": "tuple"
            },
            {
              "internalType": "uint32",
              "name": "withdrawalStartBlock",
              "type": "uint32"
            },
            {
              "internalType": "address",
              "name": "delegatedAddress",
              "type": "address"
            }
          ],
          "internalType": "struct IStrategyManager.QueuedWithdrawal",
          "name": "queuedWithdrawal",
          "type": "tuple"
        },
        {
          "internalType": "contract IERC20[]",
          "name": "tokens",
          "type": "address[]"
        },
        {
          "internalType": "uint256[]",
          "name": "indicesToSkip",
          "type": "uint256[]"
        }
      ],
      "name": "slashQueuedWithdrawal",
      "outputs": [],
      "stateMutability": "nonpayable",
      "type": "function"
    },
    {
      "inputs": [
        {
          "internalType": "address",
          "name": "slashedAddress",
          "type": "address"
        },
        {
          "internalType": "address",
          "name": "recipient",
          "type": "address"
        },
        {
          "internalType": "contract IStrategy[]",
          "name": "strategies",
          "type": "address[]"
        },
        {
          "internalType": "contract IERC20[]",
          "name": "tokens",
          "type": "address[]"
        },
        {
          "internalType": "uint256[]",
          "name": "strategyIndexes",
          "type": "uint256[]"
        },
        {
          "internalType": "uint256[]",
          "name": "shareAmounts",
          "type": "uint256[]"
        }
      ],
      "name": "slashShares",
      "outputs": [],
      "stateMutability": "nonpayable",
      "type": "function"
    },
    {
      "inputs": [],
      "name": "slasher",
      "outputs": [
        {
          "internalType": "contract ISlasher",
          "name": "",
          "type": "address"
        }
      ],
      "stateMutability": "view",
      "type": "function"
    },
    {
      "inputs": [
        {
          "internalType": "address",
          "name": "",
          "type": "address"
        },
        {
          "internalType": "uint256",
          "name": "",
          "type": "uint256"
        }
      ],
      "name": "stakerStrategyList",
      "outputs": [
        {
          "internalType": "contract IStrategy",
          "name": "",
          "type": "address"
        }
      ],
      "stateMutability": "view",
      "type": "function"
    },
    {
      "inputs": [
        {
          "internalType": "address",
          "name": "staker",
          "type": "address"
        }
      ],
      "name": "stakerStrategyListLength",
      "outputs": [
        {
          "internalType": "uint256",
          "name": "",
          "type": "uint256"
        }
      ],
      "stateMutability": "view",
      "type": "function"
    },
    {
      "inputs": [
        {
          "internalType": "address",
          "name": "",
          "type": "address"
        },
        {
          "internalType": "contract IStrategy",
          "name": "",
          "type": "address"
        }
      ],
      "name": "stakerStrategyShares",
      "outputs": [
        {
          "internalType": "uint256",
          "name": "",
          "type": "uint256"
        }
      ],
      "stateMutability": "view",
      "type": "function"
    },
    {
      "inputs": [
        {
          "internalType": "contract IStrategy",
          "name": "",
          "type": "address"
        }
      ],
      "name": "strategyIsWhitelistedForDeposit",
      "outputs": [
        {
          "internalType": "bool",
          "name": "",
          "type": "bool"
        }
      ],
      "stateMutability": "view",
      "type": "function"
    },
    {
      "inputs": [],
      "name": "strategyWhitelister",
      "outputs": [
        {
          "internalType": "address",
          "name": "",
          "type": "address"
        }
      ],
      "stateMutability": "view",
      "type": "function"
    },
    {
      "inputs": [
        {
          "internalType": "address",
          "name": "newOwner",
          "type": "address"
        }
      ],
      "name": "transferOwnership",
      "outputs": [],
      "stateMutability": "nonpayable",
      "type": "function"
    },
    {
      "inputs": [],
      "name": "undelegate",
      "outputs": [],
      "stateMutability": "nonpayable",
      "type": "function"
    },
    {
      "inputs": [
        {
          "internalType": "uint256",
          "name": "newPausedStatus",
          "type": "uint256"
        }
      ],
      "name": "unpause",
      "outputs": [],
      "stateMutability": "nonpayable",
      "type": "function"
    },
    {
      "inputs": [],
      "name": "withdrawalDelayBlocks",
      "outputs": [
        {
          "internalType": "uint256",
          "name": "",
          "type": "uint256"
        }
      ],
      "stateMutability": "view",
      "type": "function"
    },
    {
      "inputs": [
        {
          "internalType": "bytes32",
          "name": "",
          "type": "bytes32"
        }
      ],
      "name": "withdrawalRootPending",
      "outputs": [
        {
          "internalType": "bool",
          "name": "",
          "type": "bool"
        }
      ],
      "stateMutability": "view",
      "type": "function"
    }
  ],
  "bytecode": {
    "object": "0x6101006040523480156200001257600080fd5b5060405162005c2a38038062005c2a833981016040819052620000359162000140565b6001600160a01b0380841660805280831660a052811660c0526200005862000065565b50504660e0525062000194565b600054610100900460ff1615620000d25760405162461bcd60e51b815260206004820152602760248201527f496e697469616c697a61626c653a20636f6e747261637420697320696e697469604482015266616c697a696e6760c81b606482015260840160405180910390fd5b60005460ff908116101562000125576000805460ff191660ff9081179091556040519081527f7f26b83ff96e1f2b6a682f133852f6798a09c465da95921460cefb38474024989060200160405180910390a15b565b6001600160a01b03811681146200013d57600080fd5b50565b6000806000606084860312156200015657600080fd5b8351620001638162000127565b6020850151909350620001768162000127565b6040850151909250620001898162000127565b809150509250925092565b60805160a05160c05160e0516159de6200024c60003960008181610ddb0152611da801526000818161058d015281816106d601528181610bfc0152818161112901528181611b9d0152818161217e0152818161229501528181613869015261398a01526000818161030f0152818161171701528181611b0d0152612fc901526000818161062c015281816109ba015281816118f70152818161242c0152818161282d015281816133b6015261366101526159de6000f3fe608060405234801561001057600080fd5b50600436106102745760003560e01c80638b8aac3c11610151578063b5d8b5b8116100c3578063df5cf72311610087578063df5cf72314610627578063e7a050aa1461064e578063f123991e14610661578063f2fde38b14610674578063f3be65d314610687578063fabc1cbc1461069a57600080fd5b8063b5d8b5b8146105c2578063c3c6b3a9146105d5578063c6656702146105f8578063ca661c041461060b578063cbc2bd621461061457600080fd5b8063967fc0d211610115578063967fc0d21461053c5780639f00fa241461054f578063a6b63eb814610562578063a782d94514610575578063b134427114610588578063b43b514b146105af57600080fd5b80638b8aac3c146104be5780638da5cb5b146104e75780639104c319146104f857806392ab89bb1461051357806394f649dd1461051b57600080fd5b8063595c6a67116101ea578063663c1de4116101ae578063663c1de414610415578063715018a6146104385780637a7e0d92146104405780637ecebe001461046b578063886f11951461048b5780638b88b9151461049e57600080fd5b8063595c6a67146103ac5780635ac86ab7146103b45780635c975abb146103e75780635de08ff2146103ef57806363ecafb61461040257600080fd5b806343c090611161023c57806343c09061146102f75780634665bcda1461030a57806348825e94146103495780634d50f9a41461037057806350f73e7c14610383578063566310281461038c57600080fd5b806306f1f68414610279578063136439dd1461028e57806320606b70146102a157806332e89ace146102db5780633644e515146102ee575b600080fd5b61028c610287366004614932565b6106ad565b005b61028c61029c366004614a19565b610a52565b6102c87f8cad95687ba82c2ce50e74f7b754645e5117c3a5bec8151c0726d5857980a86681565b6040519081526020015b60405180910390f35b6102c86102e9366004614aa0565b610bb0565b6102c860c95481565b61028c610305366004614b96565b6110f2565b6103317f000000000000000000000000000000000000000000000000000000000000000081565b6040516001600160a01b0390911681526020016102d2565b6102c87f0a564d4cfe5cb0d4ee082aab2ca54b8c48e129485a8f7c77766ab5ef0c3566f181565b61028c61037e366004614a19565b6114d2565b6102c860cc5481565b6102c861039a366004614c3c565b60d06020526000908152604090205481565b61028c6114e6565b6103d76103c2366004614c59565b609854600160ff9092169190911b9081161490565b60405190151581526020016102d2565b6098546102c8565b61028c6103fd366004614c7c565b6115cc565b61028c610410366004614cbd565b611715565b6103d7610423366004614c3c565b60d16020526000908152604090205460ff1681565b61028c61196f565b6102c861044e366004614cf2565b60cd60209081526000928352604080842090915290825290205481565b6102c8610479366004614c3c565b60ca6020526000908152604090205481565b609754610331906001600160a01b031681565b6102c86104ac366004614c3c565b60d26020526000908152604090205481565b6102c86104cc366004614c3c565b6001600160a01b0316600090815260ce602052604090205490565b6033546001600160a01b0316610331565b61033173beac0eeeeeeeeeeeeeeeeeeeeeeeeeeeeeebeac081565b61028c611983565b61052e610529366004614c3c565b61198c565b6040516102d2929190614d9f565b60cb54610331906001600160a01b031681565b61028c61055d366004614dcd565b611b0b565b61028c610570366004614df9565b611c79565b61028c610583366004614e54565b611e63565b6103317f000000000000000000000000000000000000000000000000000000000000000081565b6102c86105bd366004615146565b611f61565b61028c6105d0366004614c7c565b611fae565b6103d76105e3366004614a19565b60cf6020526000908152604090205460ff1681565b61028c610606366004614c3c565b6120f2565b6102c861c4e081565b610331610622366004614dcd565b612103565b6103317f000000000000000000000000000000000000000000000000000000000000000081565b6102c861065c36600461517a565b61213b565b6102c861066f3660046151c9565b612251565b61028c610682366004614c3c565b612a81565b61028c610695366004615288565b612af7565b61028c6106a8366004614a19565b612b62565b6106b5612d01565b6040516372c1cc1b60e11b81526001600160a01b03808c1660048301528b917f00000000000000000000000000000000000000000000000000000000000000009091169063e583983690602401602060405180830381865afa15801561071f573d6000803e3d6000fd5b505050506040513d601f19601f82011682018060405250810190610743919061530f565b6107685760405162461bcd60e51b815260040161075f9061532c565b60405180910390fd5b6002606554141561078b5760405162461bcd60e51b815260040161075f90615382565b60026065558588146107fa5760405162461bcd60e51b815260206004820152603260248201527f53747261746567794d616e616765722e736c6173685368617265733a20696e706044820152710eae840d8cadccee8d040dad2e6dac2e8c6d60731b606482015260840161075f565b600088815b818110156109b7576108698e89898681811061081d5761081d6153b9565b905060200201358e8e85818110610836576108366153b9565b905060200201602081019061084b9190614c3c565b89898681811061085d5761085d6153b9565b90506020020135612d5b565b15610875578260010192505b73beac0eeeeeeeeeeeeeeeeeeeeeeeeeeeeeebeac08c8c8381811061089c5761089c6153b9565b90506020020160208101906108b19190614c3c565b6001600160a01b031614156108e8576108e38e8e8888858181106108d7576108d76153b9565b90506020020135612f35565b6109af565b8b8b828181106108fa576108fa6153b9565b905060200201602081019061090f9190614c3c565b6001600160a01b031663d9caed128e8c8c85818110610930576109306153b9565b90506020020160208101906109459190614c3c565b898986818110610957576109576153b9565b905060200201356040518463ffffffff1660e01b815260040161097c939291906153cf565b600060405180830381600087803b15801561099657600080fd5b505af11580156109aa573d6000803e3d6000fd5b505050505b6001016107ff565b507f00000000000000000000000000000000000000000000000000000000000000006001600160a01b0316635820491c8e8d8d89896040518663ffffffff1660e01b8152600401610a0c9594939291906153f3565b600060405180830381600087803b158015610a2657600080fd5b505af1158015610a3a573d6000803e3d6000fd5b50506001606555505050505050505050505050505050565b609760009054906101000a90046001600160a01b03166001600160a01b0316639fd0506d6040518163ffffffff1660e01b8152600401602060405180830381865afa158015610aa5573d6000803e3d6000fd5b505050506040513d601f19601f82011682018060405250810190610ac99190615482565b6001600160a01b0316336001600160a01b031614610af95760405162461bcd60e51b815260040161075f9061549f565b60985481811614610b725760405162461bcd60e51b815260206004820152603860248201527f5061757361626c652e70617573653a20696e76616c696420617474656d70742060448201527f746f20756e70617573652066756e6374696f6e616c6974790000000000000000606482015260840161075f565b609881905560405181815233907fab40a374bc51de372200a8bc981af8c9ecdc08dfdaef0bb6e09f88f3c616ef3d906020015b60405180910390a250565b609854600090819060019081161415610bdb5760405162461bcd60e51b815260040161075f906154e7565b6040516372c1cc1b60e11b81526001600160a01b03808716600483015286917f00000000000000000000000000000000000000000000000000000000000000009091169063e583983690602401602060405180830381865afa158015610c45573d6000803e3d6000fd5b505050506040513d601f19601f82011682018060405250810190610c69919061530f565b15610c865760405162461bcd60e51b815260040161075f9061551e565b60026065541415610ca95760405162461bcd60e51b815260040161075f90615382565b600260655542851015610d305760405162461bcd60e51b815260206004820152604360248201527f53747261746567794d616e616765722e6465706f736974496e746f537472617460448201527f656779576974685369676e61747572653a207369676e617475726520657870696064820152621c995960ea1b608482015260a40161075f565b6001600160a01b03868116600090815260ca602090815260408083205481517f0a564d4cfe5cb0d4ee082aab2ca54b8c48e129485a8f7c77766ab5ef0c3566f1938101939093528d851691830191909152928b166060820152608081018a905260a0810183905260c0810188905260e00160408051601f1981840301815291815281516020928301206001600160a01b038b16600090815260ca9093529082206001850190559150467f000000000000000000000000000000000000000000000000000000000000000014610ec85750604080518082018252600a81526922b4b3b2b72630bcb2b960b11b60209182015281517f8cad95687ba82c2ce50e74f7b754645e5117c3a5bec8151c0726d5857980a866818301527f71b625cfad44bac63b13dba07f2e1d6084ee04b6f8752101ece6126d584ee6ea81840152466060820152306080808301919091528351808303909101815260a08201845280519083012061190160f01b60c083015260c282015260e2808201859052835180830390910181526101029091019092528151910120610f04565b60c95460405161190160f01b60208201526022810191909152604281018390526062016040516020818303038152906040528051906020012090505b6001600160a01b0389163b1561102d57604051630b135d3f60e11b808252906001600160a01b038b1690631626ba7e90610f449085908c906004016155f0565b602060405180830381865afa158015610f61573d6000803e3d6000fd5b505050506040513d601f19601f82011682018060405250810190610f859190615609565b6001600160e01b031916146110285760405162461bcd60e51b815260206004820152605760248201527f53747261746567794d616e616765722e6465706f736974496e746f537472617460448201527f656779576974685369676e61747572653a2045524331323731207369676e617460648201527f75726520766572696669636174696f6e206661696c6564000000000000000000608482015260a40161075f565b6110d1565b886001600160a01b0316611041828961303a565b6001600160a01b0316146110d15760405162461bcd60e51b815260206004820152604b60248201527f53747261746567794d616e616765722e6465706f736974496e746f537472617460448201527f656779576974685369676e61747572653a207369676e6174757265206e6f742060648201526a333937b69039ba30b5b2b960a91b608482015260a40161075f565b6110dd898d8d8d61305e565b60016065559c9b505050505050505050505050565b6110fa612d01565b61110a60e0860160c08701614c3c565b6040516372c1cc1b60e11b81526001600160a01b0382811660048301527f0000000000000000000000000000000000000000000000000000000000000000169063e583983690602401602060405180830381865afa158015611170573d6000803e3d6000fd5b505050506040513d601f19601f82011682018060405250810190611194919061530f565b6111b05760405162461bcd60e51b815260040161075f9061532c565b600260655414156111d35760405162461bcd60e51b815260040161075f90615382565b60026065556111e28680615633565b851490506112585760405162461bcd60e51b815260206004820152603c60248201527f53747261746567794d616e616765722e736c617368517565756564576974686460448201527f726177616c3a20696e707574206c656e677468206d69736d6174636800000000606482015260840161075f565b60006112666105bd8861567c565b600081815260cf602052604090205490915060ff166112ef576040805162461bcd60e51b81526020600482015260248101919091527f53747261746567794d616e616765722e736c617368517565756564576974686460448201527f726177616c3a207769746864726177616c206973206e6f742070656e64696e67606482015260840161075f565b600081815260cf60205260408120805460ff19169055806113108980615633565b9050905060005b818110156114c057858310801561134557508087878581811061133c5761133c6153b9565b90506020020135145b1561135557826001019250611317565b73beac0eeeeeeeeeeeeeeeeeeeeeeeeeeeeeebeac06113748b80615633565b83818110611384576113846153b9565b90506020020160208101906113999190614c3c565b6001600160a01b031614156113de576113d96113bb60608c0160408d01614c3c565b8c6113c960208e018e615633565b858181106108d7576108d76153b9565b6114b8565b6113e88a80615633565b828181106113f8576113f86153b9565b905060200201602081019061140d9190614c3c565b6001600160a01b031663d9caed128c8b8b8581811061142e5761142e6153b9565b90506020020160208101906114439190614c3c565b61145060208f018f615633565b86818110611460576114606153b9565b905060200201356040518463ffffffff1660e01b8152600401611485939291906153cf565b600060405180830381600087803b15801561149f57600080fd5b505af11580156114b3573d6000803e3d6000fd5b505050505b600101611317565b50506001606555505050505050505050565b6114da612d01565b6114e3816131f4565b50565b609760009054906101000a90046001600160a01b03166001600160a01b0316639fd0506d6040518163ffffffff1660e01b8152600401602060405180830381865afa158015611539573d6000803e3d6000fd5b505050506040513d601f19601f8201168201806040525081019061155d9190615482565b6001600160a01b0316336001600160a01b03161461158d5760405162461bcd60e51b815260040161075f9061549f565b600019609881905560405190815233907fab40a374bc51de372200a8bc981af8c9ecdc08dfdaef0bb6e09f88f3c616ef3d9060200160405180910390a2565b60cb546001600160a01b031633146115f65760405162461bcd60e51b815260040161075f9061568e565b8060005b8181101561170f5760d16000858584818110611618576116186153b9565b905060200201602081019061162d9190614c3c565b6001600160a01b0316815260208101919091526040016000205460ff1661170757600160d16000868685818110611666576116666153b9565b905060200201602081019061167b9190614c3c565b6001600160a01b031681526020810191909152604001600020805460ff19169115159190911790557f0c35b17d91c96eb2751cd456e1252f42a386e524ef9ff26ecc9950859fdc04fe8484838181106116d6576116d66153b9565b90506020020160208101906116eb9190614c3c565b6040516001600160a01b03909116815260200160405180910390a15b6001016115fa565b50505050565b7f00000000000000000000000000000000000000000000000000000000000000006001600160a01b0316331461175d5760405162461bcd60e51b815260040161075f906156f8565b600260655414156117805760405162461bcd60e51b815260040161075f90615382565b60026065556001600160a01b038316600090815260cd6020908152604080832073beac0eeeeeeeeeeeeeeeeeeeeeeeeeeeeeebeac08452909152902054808211156118125760006117d1828461576b565b6001600160a01b038616600090815260d260205260408120805492935083929091906117fe908490615782565b9091555061180e9050818461576b565b9250505b811561183a57611838848473beac0eeeeeeeeeeeeeeeeeeeeeeeeeeeeeebeac085612d5b565b505b6040805160018082528183019092526000916020808301908036833701905050905073beac0eeeeeeeeeeeeeeeeeeeeeeeeeeeeeebeac081600081518110611884576118846153b9565b6001600160a01b03929092166020928302919091019091015260408051600180825281830190925260009181602001602082028036833701905050905083816000815181106118d5576118d56153b9565b6020908102919091010152604051631608124760e21b81526001600160a01b037f00000000000000000000000000000000000000000000000000000000000000001690635820491c906119309089908690869060040161579a565b600060405180830381600087803b15801561194a57600080fd5b505af115801561195e573d6000803e3d6000fd5b505060016065555050505050505050565b611977612d01565b61198160006132b9565b565b6119813361330b565b6001600160a01b038116600090815260ce6020526040812054606091829190816001600160401b038111156119c3576119c3614a32565b6040519080825280602002602001820160405280156119ec578160200160208202803683370190505b50905060005b82811015611a7d576001600160a01b038616600090815260cd6020908152604080832060ce9092528220805491929184908110611a3157611a316153b9565b60009182526020808320909101546001600160a01b031683528201929092526040019020548251839083908110611a6a57611a6a6153b9565b60209081029190910101526001016119f2565b5060ce6000866001600160a01b03166001600160a01b031681526020019081526020016000208181805480602002602001604051908101604052809291908181526020018280548015611af957602002820191906000526020600020905b81546001600160a01b03168152600190910190602001808311611adb575b50505050509150935093505050915091565b7f00000000000000000000000000000000000000000000000000000000000000006001600160a01b03163314611b535760405162461bcd60e51b815260040161075f906156f8565b60985460009060019081161415611b7c5760405162461bcd60e51b815260040161075f906154e7565b6040516372c1cc1b60e11b81526001600160a01b03808516600483015284917f00000000000000000000000000000000000000000000000000000000000000009091169063e583983690602401602060405180830381865afa158015611be6573d6000803e3d6000fd5b505050506040513d601f19601f82011682018060405250810190611c0a919061530f565b15611c275760405162461bcd60e51b815260040161075f9061551e565b60026065541415611c4a5760405162461bcd60e51b815260040161075f90615382565b6002606555611c6e8473beac0eeeeeeeeeeeeeeeeeeeeeeeeeeeeeebeac085613415565b505060016065555050565b600054610100900460ff1615808015611c995750600054600160ff909116105b80611cb35750303b158015611cb3575060005460ff166001145b611d165760405162461bcd60e51b815260206004820152602e60248201527f496e697469616c697a61626c653a20636f6e747261637420697320616c72656160448201526d191e481a5b9a5d1a585b1a5e995960921b606482015260840161075f565b6000805460ff191660011790558015611d39576000805461ff0019166101001790555b604080518082018252600a81526922b4b3b2b72630bcb2b960b11b60209182015281517f8cad95687ba82c2ce50e74f7b754645e5117c3a5bec8151c0726d5857980a866818301527f71b625cfad44bac63b13dba07f2e1d6084ee04b6f8752101ece6126d584ee6ea818401527f00000000000000000000000000000000000000000000000000000000000000006060820152306080808301919091528351808303909101815260a0909101909252815191012060c955611dfa84846136d1565b611e03866132b9565b611e0c856137d1565b611e15826131f4565b8015611e5b576000805461ff0019169055604051600181527f7f26b83ff96e1f2b6a682f133852f6798a09c465da95921460cefb38474024989060200160405180910390a15b505050505050565b60985460019060029081161415611e8c5760405162461bcd60e51b815260040161075f906154e7565b60026065541415611eaf5760405162461bcd60e51b815260040161075f90615382565b600260655560005b8881101561195e57611f4f8a8a83818110611ed457611ed46153b9565b9050602002810190611ee691906157da565b898984818110611ef857611ef86153b9565b9050602002810190611f0a9190615633565b898986818110611f1c57611f1c6153b9565b90506020020135888887818110611f3557611f356153b9565b9050602002016020810190611f4a91906157fa565b61383a565b80611f5981615817565b915050611eb7565b80516020808301516040808501516060860151608087015160a08801519351600097611f91979096959101615832565b604051602081830303815290604052805190602001209050919050565b60cb546001600160a01b03163314611fd85760405162461bcd60e51b815260040161075f9061568e565b8060005b8181101561170f5760d16000858584818110611ffa57611ffa6153b9565b905060200201602081019061200f9190614c3c565b6001600160a01b0316815260208101919091526040016000205460ff16156120ea57600060d16000868685818110612049576120496153b9565b905060200201602081019061205e9190614c3c565b6001600160a01b031681526020810191909152604001600020805460ff19169115159190911790557f4074413b4b443e4e58019f2855a8765113358c7c72e39509c6af45fc0f5ba0308484838181106120b9576120b96153b9565b90506020020160208101906120ce9190614c3c565b6040516001600160a01b03909116815260200160405180910390a15b600101611fdc565b6120fa612d01565b6114e3816137d1565b60ce602052816000526040600020818154811061211f57600080fd5b6000918252602090912001546001600160a01b03169150829050565b6098546000908190600190811614156121665760405162461bcd60e51b815260040161075f906154e7565b6040516372c1cc1b60e11b81523360048201819052907f00000000000000000000000000000000000000000000000000000000000000006001600160a01b03169063e583983690602401602060405180830381865afa1580156121cd573d6000803e3d6000fd5b505050506040513d601f19601f820116820180604052508101906121f1919061530f565b1561220e5760405162461bcd60e51b815260040161075f9061551e565b600260655414156122315760405162461bcd60e51b815260040161075f90615382565b60026065556122423387878761305e565b60016065559695505050505050565b6098546000906001906002908116141561227d5760405162461bcd60e51b815260040161075f906154e7565b6040516372c1cc1b60e11b81523360048201819052907f00000000000000000000000000000000000000000000000000000000000000006001600160a01b03169063e583983690602401602060405180830381865afa1580156122e4573d6000803e3d6000fd5b505050506040513d601f19601f82011682018060405250810190612308919061530f565b156123255760405162461bcd60e51b815260040161075f9061551e565b600260655414156123485760405162461bcd60e51b815260040161075f90615382565b60026065558786146123a95760405162461bcd60e51b81526020600482015260366024820152600080516020615989833981519152604482015275040d2dce0eae840d8cadccee8d040dad2e6dac2e8c6d60531b606482015260840161075f565b6001600160a01b038516612415576040805162461bcd60e51b815260206004820152602481019190915260008051602061598983398151915260448201527f2063616e6e6f7420776974686472617720746f207a65726f2061646472657373606482015260840161075f565b604051631608124760e21b81526001600160a01b037f00000000000000000000000000000000000000000000000000000000000000001690635820491c906124699033908d908d908d908d906004016153f3565b600060405180830381600087803b15801561248357600080fd5b505af1158015612497573d6000803e3d6000fd5b505033600090815260d0602052604081205492509050805b8a8110156128145773beac0eeeeeeeeeeeeeeeeeeeeeeeeeeeeeebeac08c8c838181106124de576124de6153b9565b90506020020160208101906124f39190614c3c565b6001600160a01b03161415612701576001600160a01b03881633146125a25760405162461bcd60e51b8152602060048201526065602482015260008051602061598983398151915260448201527f2063616e6e6f742071756575652061207769746864726177616c206f6620426560648201527f61636f6e20436861696e2045544820746f206120646966666572656e74206164608482015264647265737360d81b60a482015260c40161075f565b60018b1461263b5760405162461bcd60e51b8152602060048201526066602482015260008051602061598983398151915260448201527f2063616e6e6f742071756575652061207769746864726177616c20696e636c7560648201527f64696e6720426561636f6e20436861696e2045544820616e64206f7468657220608482015265746f6b656e7360d01b60a482015260c40161075f565b633b9aca008a8a83818110612652576126526153b9565b9050602002013561266391906158a6565b156127015760405162461bcd60e51b815260206004820152606e602482015260008051602061598983398151915260448201527f2063616e6e6f742071756575652061207769746864726177616c206f6620426560648201527f61636f6e20436861696e2045544820666f7220616e206e6f6e2d77686f6c652060848201526d616d6f756e74206f66206777656960901b60a482015260c40161075f565b612757338f8f85818110612717576127176153b9565b905060200201358e8e85818110612730576127306153b9565b90506020020160208101906127459190614c3c565b8d8d8681811061085d5761085d6153b9565b15612763578160010191505b7fcf1c2370141bbd0a6d971beb0e3a2455f24d6e773ddc20ccc1c4e32f3dd9f9f733848e8e85818110612798576127986153b9565b90506020020160208101906127ad9190614c3c565b8d8d868181106127bf576127bf6153b9565b9050602002013560405161280494939291906001600160a01b0394851681526001600160601b0393909316602084015292166040820152606081019190915260800190565b60405180910390a16001016124af565b50604051631976849960e21b81523360048201526000907f00000000000000000000000000000000000000000000000000000000000000006001600160a01b0316906365da126490602401602060405180830381865afa15801561287c573d6000803e3d6000fd5b505050506040513d601f19601f820116820180604052508101906128a09190615482565b90506128aa61485d565b600060405180604001604052808b6001600160a01b03168152602001866001600160601b03168152509050846001016001600160601b031660d06000336001600160a01b03166001600160a01b03168152602001908152602001600020819055506040518060c001604052808f8f80806020026020016040519081016040528093929190818152602001838360200280828437600081840152601f19601f8201169050808301925050505050505081526020018d8d808060200260200160405190810160405280939291908181526020018383602002808284376000920182905250938552505033602084015250604082019390935263ffffffff431660608201526001600160a01b03851660809091015291506129c782611f61565b600081815260cf60205260409020805460ff1916600117905590508880156129fc575033600090815260ce6020526040902054155b15612a0a57612a0a3361330b565b604080513381526001600160601b03871660208201526001600160a01b038c811682840152851660608201526080810183905290517f32cf9fc97155f52860a59a99879a2e89c1e53f28126a9ab6a2ff29344299e6749181900360a00190a160016065559f9e505050505050505050505050505050565b612a89612d01565b6001600160a01b038116612aee5760405162461bcd60e51b815260206004820152602660248201527f4f776e61626c653a206e6577206f776e657220697320746865207a65726f206160448201526564647265737360d01b606482015260840161075f565b6114e3816132b9565b60985460019060029081161415612b205760405162461bcd60e51b815260040161075f906154e7565b60026065541415612b435760405162461bcd60e51b815260040161075f90615382565b6002606555612b55868686868661383a565b5050600160655550505050565b609760009054906101000a90046001600160a01b03166001600160a01b031663eab66d7a6040518163ffffffff1660e01b8152600401602060405180830381865afa158015612bb5573d6000803e3d6000fd5b505050506040513d601f19601f82011682018060405250810190612bd99190615482565b6001600160a01b0316336001600160a01b031614612c4c5760405162461bcd60e51b815260206004820152602a60248201527f6d73672e73656e646572206973206e6f74207065726d697373696f6e6564206160448201526939903ab73830bab9b2b960b11b606482015260840161075f565b609854198119609854191614612cca5760405162461bcd60e51b815260206004820152603860248201527f5061757361626c652e756e70617573653a20696e76616c696420617474656d7060448201527f7420746f2070617573652066756e6374696f6e616c6974790000000000000000606482015260840161075f565b609881905560405181815233907f3582d1828e26bf56bd801502bc021ac0bc8afb57c826e4986b45593c8fad389c90602001610ba5565b6033546001600160a01b031633146119815760405162461bcd60e51b815260206004820181905260248201527f4f776e61626c653a2063616c6c6572206973206e6f7420746865206f776e6572604482015260640161075f565b60006001600160a01b038516612dd95760405162461bcd60e51b815260206004820152603f60248201527f53747261746567794d616e616765722e5f72656d6f76655368617265733a206460448201527f65706f7369746f722063616e6e6f74206265207a65726f206164647265737300606482015260840161075f565b81612e4c5760405162461bcd60e51b815260206004820152603e60248201527f53747261746567794d616e616765722e5f72656d6f76655368617265733a207360448201527f68617265416d6f756e742073686f756c64206e6f74206265207a65726f210000606482015260840161075f565b6001600160a01b03808616600090815260cd602090815260408083209387168352929052205480831115612ede5760405162461bcd60e51b815260206004820152603360248201527f53747261746567794d616e616765722e5f72656d6f76655368617265733a20736044820152720d0c2e4ca82dadeeadce840e8dede40d0d2ced606b1b606482015260840161075f565b6001600160a01b03808716600090815260cd602090815260408083209388168352929052208382039081905590831415612f2757612f1d868686613f76565b6001915050612f2d565b60009150505b949350505050565b6001600160a01b038316600090815260d260205260409020548015612fb25780821115612f86576001600160a01b038416600090815260d26020526040812055612f7f818361576b565b9150612fb2565b612f90828261576b565b6001600160a01b03909416600090815260d26020526040902093909355505050565b604051630b9cf64f60e11b81526001600160a01b037f00000000000000000000000000000000000000000000000000000000000000001690631739ec9e90613002908790879087906004016153cf565b600060405180830381600087803b15801561301c57600080fd5b505af1158015613030573d6000803e3d6000fd5b5050505050505050565b6000806000613049858561425a565b91509150613056816142ca565b509392505050565b6001600160a01b038316600090815260d16020526040812054849060ff166131045760405162461bcd60e51b815260206004820152604d60248201527f53747261746567794d616e616765722e6f6e6c7953747261746567696573576860448201527f6974656c6973746564466f724465706f7369743a207374726174656779206e6f60648201526c1d081dda1a5d195b1a5cdd1959609a1b608482015260a40161075f565b6131196001600160a01b038516338786614485565b6040516311f9fbc960e21b81526001600160a01b038581166004830152602482018590528616906347e7ef24906044016020604051808303816000875af1158015613168573d6000803e3d6000fd5b505050506040513d601f19601f8201168201806040525081019061318c91906158c8565b9150613199868684613415565b604080516001600160a01b03888116825286811660208301528716818301526060810184905290517f7cfff908a4b583f36430b25d75964c458d8ede8a99bd61be750e97ee1b2f3a969181900360800190a150949350505050565b61c4e08111156132785760405162461bcd60e51b815260206004820152604360248201527f53747261746567794d616e616765722e7365745769746864726177616c44656c60448201527f61793a205f7769746864726177616c44656c6179426c6f636b7320746f6f20686064820152620d2ced60eb1b608482015260a40161075f565b60cc5460408051918252602082018390527f4ffb00400574147429ee377a5633386321e66d45d8b14676014b5fa393e61e9e910160405180910390a160cc55565b603380546001600160a01b038381166001600160a01b0319831681179093556040519116919082907f8be0079c531659141344cd1fd0a4f28419497f9722a3daafe3b4186f6b6457e090600090a35050565b6001600160a01b038116600090815260ce6020526040902054156133975760405162461bcd60e51b815260206004820152603a60248201527f53747261746567794d616e616765722e5f756e64656c65676174653a2064657060448201527f6f7369746f722068617320616374697665206465706f73697473000000000000606482015260840161075f565b6040516336a2fa1960e21b81526001600160a01b0382811660048301527f0000000000000000000000000000000000000000000000000000000000000000169063da8be86490602401600060405180830381600087803b1580156133fa57600080fd5b505af115801561340e573d6000803e3d6000fd5b5050505050565b6001600160a01b0383166134915760405162461bcd60e51b815260206004820152603c60248201527f53747261746567794d616e616765722e5f6164645368617265733a206465706f60448201527f7369746f722063616e6e6f74206265207a65726f206164647265737300000000606482015260840161075f565b806134fd5760405162461bcd60e51b815260206004820152603660248201527f53747261746567794d616e616765722e5f6164645368617265733a207368617260448201527565732073686f756c64206e6f74206265207a65726f2160501b606482015260840161075f565b6001600160a01b03808416600090815260cd602090815260408083209386168352929052205461360e576001600160a01b038316600090815260ce6020908152604090912054106135cf5760405162461bcd60e51b815260206004820152605060248201527f53747261746567794d616e616765722e5f6164645368617265733a206465706f60448201527f73697420776f756c6420657863656564204d41585f5354414b45525f5354524160648201526f0a88a8eb2be9892a6a8be988a9c8ea8960831b608482015260a40161075f565b6001600160a01b03838116600090815260ce602090815260408220805460018101825590835291200180546001600160a01b0319169184169190911790555b6001600160a01b03808416600090815260cd6020908152604080832093861683529290529081208054839290613645908490615782565b9091555050604051631452b9d760e11b81526001600160a01b037f000000000000000000000000000000000000000000000000000000000000000016906328a573ae9061369a908690869086906004016153cf565b600060405180830381600087803b1580156136b457600080fd5b505af11580156136c8573d6000803e3d6000fd5b50505050505050565b6097546001600160a01b03161580156136f257506001600160a01b03821615155b6137745760405162461bcd60e51b815260206004820152604760248201527f5061757361626c652e5f696e697469616c697a655061757365723a205f696e6960448201527f7469616c697a6550617573657228292063616e206f6e6c792062652063616c6c6064820152666564206f6e636560c81b608482015260a40161075f565b609881905560405181815233907fab40a374bc51de372200a8bc981af8c9ecdc08dfdaef0bb6e09f88f3c616ef3d9060200160405180910390a250609780546001600160a01b0319166001600160a01b0392909216919091179055565b60cb54604080516001600160a01b03928316815291831660208301527f4264275e593955ff9d6146a51a4525f6ddace2e81db9391abcc9d1ca48047d29910160405180910390a160cb80546001600160a01b0319166001600160a01b0392909216919091179055565b61384a60e0860160c08701614c3c565b6040516372c1cc1b60e11b81526001600160a01b0382811660048301527f0000000000000000000000000000000000000000000000000000000000000000169063e583983690602401602060405180830381865afa1580156138b0573d6000803e3d6000fd5b505050506040513d601f19601f820116820180604052508101906138d4919061530f565b156138f15760405162461bcd60e51b815260040161075f9061551e565b60006138ff6105bd8861567c565b600081815260cf602052604090205490915060ff166139805760405162461bcd60e51b8152602060048201526043602482015260008051602061596983398151915260448201527f746864726177616c3a207769746864726177616c206973206e6f742070656e64606482015262696e6760e81b608482015260a40161075f565b6001600160a01b037f000000000000000000000000000000000000000000000000000000000000000016638105e0436139bf60e08a0160c08b01614c3c565b6139cf60c08b0160a08c016158e1565b6040516001600160e01b031960e085901b1681526001600160a01b03909216600483015263ffffffff166024820152604481018790526064016020604051808303816000875af1158015613a27573d6000803e3d6000fd5b505050506040513d601f19601f82011682018060405250810190613a4b919061530f565b613ad15760405162461bcd60e51b8152602060048201526057602482015260008051602061596983398151915260448201527f746864726177616c3a207368617265732070656e64696e67207769746864726160648201527f77616c20617265207374696c6c20736c61736861626c65000000000000000000608482015260a40161075f565b60cc544390613ae660c08a0160a08b016158e1565b63ffffffff16613af69190615782565b111580613b4e575073beac0eeeeeeeeeeeeeeeeeeeeeeeeeeeeeebeac0613b1d8880615633565b6000818110613b2e57613b2e6153b9565b9050602002016020810190613b439190614c3c565b6001600160a01b0316145b613bd45760405162461bcd60e51b8152602060048201526059602482015260008051602061596983398151915260448201527f746864726177616c3a207769746864726177616c44656c6179426c6f636b732060648201527f706572696f6420686173206e6f74207965742070617373656400000000000000608482015260a40161075f565b613be46080880160608901614c3c565b6001600160a01b0316336001600160a01b031614613c8c5760405162461bcd60e51b81526020600482015260646024820181905260008051602061596983398151915260448301527f746864726177616c3a206f6e6c79207370656369666965642077697468647261908201527f7765722063616e20636f6d706c65746520612071756575656420776974686472608482015263185dd85b60e21b60a482015260c40161075f565b600081815260cf60205260408120805460ff19169055613cac8880615633565b9150508315613e8f57613cbf8880615633565b87149050613d235760405162461bcd60e51b815260206004820152603f602482015260008051602061596983398151915260448201527f746864726177616c3a20696e707574206c656e677468206d69736d6174636800606482015260840161075f565b60005b81811015613e895773beac0eeeeeeeeeeeeeeeeeeeeeeeeeeeeeebeac0613d4d8a80615633565b83818110613d5d57613d5d6153b9565b9050602002016020810190613d729190614c3c565b6001600160a01b03161415613da757613da2613d9460608b0160408c01614c3c565b336113c960208d018d615633565b613e81565b613db18980615633565b82818110613dc157613dc16153b9565b9050602002016020810190613dd69190614c3c565b6001600160a01b031663d9caed12338a8a85818110613df757613df76153b9565b9050602002016020810190613e0c9190614c3c565b613e1960208e018e615633565b86818110613e2957613e296153b9565b905060200201356040518463ffffffff1660e01b8152600401613e4e939291906153cf565b600060405180830381600087803b158015613e6857600080fd5b505af1158015613e7c573d6000803e3d6000fd5b505050505b600101613d26565b50613f00565b60005b81811015613efe57613ef633613ea88b80615633565b84818110613eb857613eb86153b9565b9050602002016020810190613ecd9190614c3c565b613eda60208d018d615633565b85818110613eea57613eea6153b9565b90506020020135613415565b600101613e92565b505b33613f1160608a0160408b01614c3c565b6001600160a01b03167fe7eb0ca11b83744ece3d78e9be01b913425fbae70c32ce27726d0ecde92ef8d2613f4b60a08c0160808d016158fc565b604080516001600160601b039092168252602082018790520160405180910390a35050505050505050565b6001600160a01b03838116600090815260ce6020526040902080549183169184908110613fa557613fa56153b9565b6000918252602090912001546001600160a01b03161415614066576001600160a01b038316600090815260ce602052604090208054613fe69060019061576b565b81548110613ff657613ff66153b9565b60009182526020808320909101546001600160a01b03868116845260ce9092526040909220805491909216919084908110614033576140336153b9565b9060005260206000200160006101000a8154816001600160a01b0302191690836001600160a01b0316021790555061420c565b6001600160a01b038316600090815260ce6020526040812054905b81811015614181576001600160a01b03858116600090815260ce60205260409020805491851691839081106140b8576140b86153b9565b6000918252602090912001546001600160a01b03161415614179576001600160a01b038516600090815260ce6020526040902080546140f99060019061576b565b81548110614109576141096153b9565b60009182526020808320909101546001600160a01b03888116845260ce9092526040909220805491909216919083908110614146576141466153b9565b9060005260206000200160006101000a8154816001600160a01b0302191690836001600160a01b03160217905550614181565b600101614081565b818114156142095760405162461bcd60e51b815260206004820152604960248201527f53747261746567794d616e616765722e5f72656d6f766553747261746567794660448201527f726f6d5374616b657253747261746567794c6973743a207374726174656779206064820152681b9bdd08199bdd5b9960ba1b608482015260a40161075f565b50505b6001600160a01b038316600090815260ce6020526040902080548061423357614233615917565b600082815260209020810160001990810180546001600160a01b0319169055019055505050565b6000808251604114156142915760208301516040840151606085015160001a614285878285856144dd565b945094505050506142c3565b8251604014156142bb57602083015160408401516142b08683836145ca565b9350935050506142c3565b506000905060025b9250929050565b60008160048111156142de576142de61592d565b14156142e75750565b60018160048111156142fb576142fb61592d565b14156143495760405162461bcd60e51b815260206004820152601860248201527f45434453413a20696e76616c6964207369676e61747572650000000000000000604482015260640161075f565b600281600481111561435d5761435d61592d565b14156143ab5760405162461bcd60e51b815260206004820152601f60248201527f45434453413a20696e76616c6964207369676e6174757265206c656e67746800604482015260640161075f565b60038160048111156143bf576143bf61592d565b14156144185760405162461bcd60e51b815260206004820152602260248201527f45434453413a20696e76616c6964207369676e6174757265202773272076616c604482015261756560f01b606482015260840161075f565b600481600481111561442c5761442c61592d565b14156114e35760405162461bcd60e51b815260206004820152602260248201527f45434453413a20696e76616c6964207369676e6174757265202776272076616c604482015261756560f01b606482015260840161075f565b61170f846323b872dd60e01b8585856040516024016144a6939291906153cf565b60408051601f198184030181529190526020810180516001600160e01b03166001600160e01b031990931692909217909152614603565b6000807f7fffffffffffffffffffffffffffffff5d576e7357a4501ddfe92f46681b20a083111561451457506000905060036145c1565b8460ff16601b1415801561452c57508460ff16601c14155b1561453d57506000905060046145c1565b6040805160008082526020820180845289905260ff881692820192909252606081018690526080810185905260019060a0016020604051602081039080840390855afa158015614591573d6000803e3d6000fd5b5050604051601f1901519150506001600160a01b0381166145ba576000600192509250506145c1565b9150600090505b94509492505050565b6000806001600160ff1b038316816145e760ff86901c601b615782565b90506145f5878288856144dd565b935093505050935093915050565b6000614658826040518060400160405280602081526020017f5361666545524332303a206c6f772d6c6576656c2063616c6c206661696c6564815250856001600160a01b03166146da9092919063ffffffff16565b8051909150156146d55780806020019051810190614676919061530f565b6146d55760405162461bcd60e51b815260206004820152602a60248201527f5361666545524332303a204552433230206f7065726174696f6e20646964206e6044820152691bdd081cdd58d8d9595960b21b606482015260840161075f565b505050565b60606146e984846000856146f3565b90505b9392505050565b6060824710156147545760405162461bcd60e51b815260206004820152602660248201527f416464726573733a20696e73756666696369656e742062616c616e636520666f6044820152651c8818d85b1b60d21b606482015260840161075f565b6001600160a01b0385163b6147ab5760405162461bcd60e51b815260206004820152601d60248201527f416464726573733a2063616c6c20746f206e6f6e2d636f6e7472616374000000604482015260640161075f565b600080866001600160a01b031685876040516147c79190615943565b60006040518083038185875af1925050503d8060008114614804576040519150601f19603f3d011682016040523d82523d6000602084013e614809565b606091505b5091509150614819828286614824565b979650505050505050565b606083156148335750816146ec565b8251156148435782518084602001fd5b8160405162461bcd60e51b815260040161075f9190615955565b6040518060c00160405280606081526020016060815260200160006001600160a01b031681526020016148b5604051806040016040528060006001600160a01b0316815260200160006001600160601b031681525090565b815260006020820181905260409091015290565b6001600160a01b03811681146114e357600080fd5b80356148e9816148c9565b919050565b60008083601f84011261490057600080fd5b5081356001600160401b0381111561491757600080fd5b6020830191508360208260051b85010111156142c357600080fd5b60008060008060008060008060008060c08b8d03121561495157600080fd5b61495a8b6148de565b995061496860208c016148de565b985060408b01356001600160401b038082111561498457600080fd5b6149908e838f016148ee565b909a50985060608d01359150808211156149a957600080fd5b6149b58e838f016148ee565b909850965060808d01359150808211156149ce57600080fd5b6149da8e838f016148ee565b909650945060a08d01359150808211156149f357600080fd5b50614a008d828e016148ee565b915080935050809150509295989b9194979a5092959850565b600060208284031215614a2b57600080fd5b5035919050565b634e487b7160e01b600052604160045260246000fd5b60405160c081016001600160401b0381118282101715614a6a57614a6a614a32565b60405290565b604051601f8201601f191681016001600160401b0381118282101715614a9857614a98614a32565b604052919050565b60008060008060008060c08789031215614ab957600080fd5b8635614ac4816148c9565b9550602087810135614ad5816148c9565b9550604088013594506060880135614aec816148c9565b93506080880135925060a08801356001600160401b0380821115614b0f57600080fd5b818a0191508a601f830112614b2357600080fd5b813581811115614b3557614b35614a32565b614b47601f8201601f19168501614a70565b91508082528b84828501011115614b5d57600080fd5b80848401858401376000848284010152508093505050509295509295509295565b600060e08284031215614b9057600080fd5b50919050565b60008060008060008060808789031215614baf57600080fd5b8635614bba816148c9565b955060208701356001600160401b0380821115614bd657600080fd5b614be28a838b01614b7e565b96506040890135915080821115614bf857600080fd5b614c048a838b016148ee565b90965094506060890135915080821115614c1d57600080fd5b50614c2a89828a016148ee565b979a9699509497509295939492505050565b600060208284031215614c4e57600080fd5b81356146ec816148c9565b600060208284031215614c6b57600080fd5b813560ff811681146146ec57600080fd5b60008060208385031215614c8f57600080fd5b82356001600160401b03811115614ca557600080fd5b614cb1858286016148ee565b90969095509350505050565b600080600060608486031215614cd257600080fd5b8335614cdd816148c9565b95602085013595506040909401359392505050565b60008060408385031215614d0557600080fd5b8235614d10816148c9565b91506020830135614d20816148c9565b809150509250929050565b600081518084526020808501945080840160005b83811015614d645781516001600160a01b031687529582019590820190600101614d3f565b509495945050505050565b600081518084526020808501945080840160005b83811015614d6457815187529582019590820190600101614d83565b604081526000614db26040830185614d2b565b8281036020840152614dc48185614d6f565b95945050505050565b60008060408385031215614de057600080fd5b8235614deb816148c9565b946020939093013593505050565b600080600080600060a08688031215614e1157600080fd5b8535614e1c816148c9565b94506020860135614e2c816148c9565b93506040860135614e3c816148c9565b94979396509394606081013594506080013592915050565b6000806000806000806000806080898b031215614e7057600080fd5b88356001600160401b0380821115614e8757600080fd5b614e938c838d016148ee565b909a50985060208b0135915080821115614eac57600080fd5b614eb88c838d016148ee565b909850965060408b0135915080821115614ed157600080fd5b614edd8c838d016148ee565b909650945060608b0135915080821115614ef657600080fd5b50614f038b828c016148ee565b999c989b5096995094979396929594505050565b60006001600160401b03821115614f3057614f30614a32565b5060051b60200190565b600082601f830112614f4b57600080fd5b81356020614f60614f5b83614f17565b614a70565b82815260059290921b84018101918181019086841115614f7f57600080fd5b8286015b84811015614fa3578035614f96816148c9565b8352918301918301614f83565b509695505050505050565b600082601f830112614fbf57600080fd5b81356020614fcf614f5b83614f17565b82815260059290921b84018101918181019086841115614fee57600080fd5b8286015b84811015614fa35780358352918301918301614ff2565b80356001600160601b03811681146148e957600080fd5b60006040828403121561503257600080fd5b604051604081018181106001600160401b038211171561505457615054614a32565b6040529050808235615065816148c9565b815261507360208401615009565b60208201525092915050565b803563ffffffff811681146148e957600080fd5b600060e082840312156150a557600080fd5b6150ad614a48565b905081356001600160401b03808211156150c657600080fd5b6150d285838601614f3a565b835260208401359150808211156150e857600080fd5b506150f584828501614fae565b602083015250615107604083016148de565b60408201526151198360608401615020565b606082015261512a60a0830161507f565b608082015261513b60c083016148de565b60a082015292915050565b60006020828403121561515857600080fd5b81356001600160401b0381111561516e57600080fd5b612f2d84828501615093565b60008060006060848603121561518f57600080fd5b833561519a816148c9565b925060208401356151aa816148c9565b929592945050506040919091013590565b80151581146114e357600080fd5b60008060008060008060008060a0898b0312156151e557600080fd5b88356001600160401b03808211156151fc57600080fd5b6152088c838d016148ee565b909a50985060208b013591508082111561522157600080fd5b61522d8c838d016148ee565b909850965060408b013591508082111561524657600080fd5b506152538b828c016148ee565b9095509350506060890135615267816148c9565b91506080890135615277816151bb565b809150509295985092959890939650565b6000806000806000608086880312156152a057600080fd5b85356001600160401b03808211156152b757600080fd5b6152c389838a01614b7e565b965060208801359150808211156152d957600080fd5b506152e6888289016148ee565b909550935050604086013591506060860135615301816151bb565b809150509295509295909350565b60006020828403121561532157600080fd5b81516146ec816151bb565b60208082526036908201527f53747261746567794d616e616765722e6f6e6c7946726f7a656e3a207374616b60408201527532b9103430b9903737ba103132b2b710333937bd32b760511b606082015260800190565b6020808252601f908201527f5265656e7472616e637947756172643a207265656e7472616e742063616c6c00604082015260600190565b634e487b7160e01b600052603260045260246000fd5b6001600160a01b039384168152919092166020820152604081019190915260600190565b6001600160a01b03868116825260606020808401829052908301869052600091879160808501845b8981101561544257843561542e816148c9565b84168252938201939082019060010161541b565b5085810360408701528681526001600160fb1b0387111561546257600080fd5b8660051b9350838883830137600093010191825250979650505050505050565b60006020828403121561549457600080fd5b81516146ec816148c9565b60208082526028908201527f6d73672e73656e646572206973206e6f74207065726d697373696f6e6564206160408201526739903830bab9b2b960c11b606082015260800190565b60208082526019908201527f5061757361626c653a20696e6465782069732070617573656400000000000000604082015260600190565b60208082526054908201527f53747261746567794d616e616765722e6f6e6c794e6f7446726f7a656e3a207360408201527f74616b657220686173206265656e2066726f7a656e20616e64206d6179206265606082015273207375626a65637420746f20736c617368696e6760601b608082015260a00190565b60005b838110156155b357818101518382015260200161559b565b8381111561170f5750506000910152565b600081518084526155dc816020860160208601615598565b601f01601f19169290920160200192915050565b8281526040602082015260006146e960408301846155c4565b60006020828403121561561b57600080fd5b81516001600160e01b0319811681146146ec57600080fd5b6000808335601e1984360301811261564a57600080fd5b8301803591506001600160401b0382111561566457600080fd5b6020019150600581901b36038213156142c357600080fd5b60006156883683615093565b92915050565b60208082526044908201527f53747261746567794d616e616765722e6f6e6c7953747261746567795768697460408201527f656c69737465723a206e6f742074686520737472617465677957686974656c6960608201526339ba32b960e11b608082015260a00190565b6020808252603c908201527f53747261746567794d616e616765722e6f6e6c79456967656e506f644d616e6160408201527f6765723a206e6f742074686520656967656e506f644d616e6167657200000000606082015260800190565b634e487b7160e01b600052601160045260246000fd5b60008282101561577d5761577d615755565b500390565b6000821982111561579557615795615755565b500190565b6001600160a01b03841681526060602082018190526000906157be90830185614d2b565b82810360408401526157d08185614d6f565b9695505050505050565b6000823560de198336030181126157f057600080fd5b9190910192915050565b60006020828403121561580c57600080fd5b81356146ec816151bb565b600060001982141561582b5761582b615755565b5060010190565b60e08152600061584560e0830189614d2b565b82810360208401526158578189614d6f565b6001600160a01b0397881660408501528651881660608501526020909601516001600160601b03166080840152505063ffffffff9290921660a083015290921660c09092019190915292915050565b6000826158c357634e487b7160e01b600052601260045260246000fd5b500690565b6000602082840312156158da57600080fd5b5051919050565b6000602082840312156158f357600080fd5b6146ec8261507f565b60006020828403121561590e57600080fd5b6146ec82615009565b634e487b7160e01b600052603160045260246000fd5b634e487b7160e01b600052602160045260246000fd5b600082516157f0818460208701615598565b6020815260006146ec60208301846155c456fe53747261746567794d616e616765722e636f6d706c657465517565756564576953747261746567794d616e616765722e71756575655769746864726177616c3aa264697066735822122038ba17961d1fa89df4e28efeb318db0e555e245df3b7c90a630b631ab826b06064736f6c634300080c0033",
    "linkReferences": {}
  },
  "methodIdentifiers": {
    "DEPOSIT_TYPEHASH()": "48825e94",
    "DOMAIN_SEPARATOR()": "3644e515",
    "DOMAIN_TYPEHASH()": "20606b70",
    "MAX_WITHDRAWAL_DELAY_BLOCKS()": "ca661c04",
    "addStrategiesToDepositWhitelist(address[])": "5de08ff2",
    "beaconChainETHSharesToDecrementOnWithdrawal(address)": "8b88b915",
    "beaconChainETHStrategy()": "9104c319",
    "calculateWithdrawalRoot((address[],uint256[],address,(address,uint96),uint32,address))": "b43b514b",
    "completeQueuedWithdrawal((address[],uint256[],address,(address,uint96),uint32,address),address[],uint256,bool)": "f3be65d3",
    "completeQueuedWithdrawals((address[],uint256[],address,(address,uint96),uint32,address)[],address[][],uint256[],bool[])": "a782d945",
    "delegation()": "df5cf723",
    "depositBeaconChainETH(address,uint256)": "9f00fa24",
    "depositIntoStrategy(address,address,uint256)": "e7a050aa",
    "depositIntoStrategyWithSignature(address,address,uint256,address,uint256,bytes)": "32e89ace",
    "eigenPodManager()": "4665bcda",
    "getDeposits(address)": "94f649dd",
    "initialize(address,address,address,uint256,uint256)": "a6b63eb8",
    "nonces(address)": "7ecebe00",
    "numWithdrawalsQueued(address)": "56631028",
    "owner()": "8da5cb5b",
    "pause(uint256)": "136439dd",
    "pauseAll()": "595c6a67",
    "paused()": "5c975abb",
    "paused(uint8)": "5ac86ab7",
    "pauserRegistry()": "886f1195",
    "queueWithdrawal(uint256[],address[],uint256[],address,bool)": "f123991e",
    "recordOvercommittedBeaconChainETH(address,uint256,uint256)": "63ecafb6",
    "removeStrategiesFromDepositWhitelist(address[])": "b5d8b5b8",
    "renounceOwnership()": "715018a6",
    "setStrategyWhitelister(address)": "c6656702",
    "setWithdrawalDelayBlocks(uint256)": "4d50f9a4",
    "slashQueuedWithdrawal(address,(address[],uint256[],address,(address,uint96),uint32,address),address[],uint256[])": "43c09061",
    "slashShares(address,address,address[],address[],uint256[],uint256[])": "06f1f684",
    "slasher()": "b1344271",
    "stakerStrategyList(address,uint256)": "cbc2bd62",
    "stakerStrategyListLength(address)": "8b8aac3c",
    "stakerStrategyShares(address,address)": "7a7e0d92",
    "strategyIsWhitelistedForDeposit(address)": "663c1de4",
    "strategyWhitelister()": "967fc0d2",
    "transferOwnership(address)": "f2fde38b",
    "undelegate()": "92ab89bb",
    "unpause(uint256)": "fabc1cbc",
    "withdrawalDelayBlocks()": "50f73e7c",
    "withdrawalRootPending(bytes32)": "c3c6b3a9"
  },
  "id": 72
}